:100000000C94E0000C9408010C9408010C94080175
:100010000C9408010C9408010C9408010C9408013C
:100020000C9408010C9408010C9408010C9408012C
:100030000C9408010C9408010C9408010C9408011C
:100040000C946A080C9408010C94DA080C94B40817
:100050000C9408010C9408010C9408010C940801FC
:100060000C9408010C94080100407A10F35A00A087
:10007000724E18090010A5D4E80000E87648170071
:1000800000E40B54020000CA9A3B000000E1F505B1
:10009000000080969800000040420F000000A086FB
:1000A00001000000102700000000E803000000002D
:1000B0006400000000000A000000000001000000D1
:1000C00000002C76D888DC674F0823DFC1DFAE59EB
:1000D000E1B1B796E5E3E453C63AE651997696E87E
:1000E000E6C28426EB898C9B62ED407C6FFCEFBC02
:1000F0009C9F40F2BAA56FA5F490055A2AF75C932D
:100100006B6CF9676DC11BFCE0E40D47FEF520E662
:10011000B500D0ED902E0300943577050080841E45
:10012000080000204E0A000000C80C333333330FA0
:10013000986E12831141EF8D2114893BE65516CF3D
:10014000FEE6DB18D1844B381BF77C1D901DA4BB49
:10015000E424203284725E228100C9F124ECA1E5FE
:100160003D2700000000240027002A0000000000B6
:10017000250028002B000000000023002600290095
:10018000040404040404040402020202020203033D
:100190000303030301020408102040800102040845
:1001A00010200102040810200000000800020100D5
:1001B0000003040700000000000000000C097E1787
:1001C00011241FBECFEFD8E0DEBFCDBF13E0A0E00B
:1001D000B1E0E4EEF0E402C005900D92AA36B1075A
:1001E000D9F725E0AAE6B3E001C01D92A332B20719
:1001F000E1F710E0CFEDD0E004C02197FE010E94AE
:10020000371ECE3DD107C9F70E949E090C94652088
:100210000C940000833081F028F4813099F0823012
:10022000A9F008958730A9F08830C9F08430B1F47E
:10023000809180008F7D03C0809180008F778093B4
:100240008000089584B58F7784BD089584B58F7D2F
:10025000FBCF8091B0008F778093B000089580919C
:10026000B0008F7DF9CFCF93DF93282F30E0F901D5
:10027000E855FE4F8491F901EC56FE4FD491F901F7
:10028000E058FE4FC491CC23A1F081110E940A01D5
:10029000EC2FF0E0EE0FFF1FEA58FE4FA591B4914E
:1002A000EC91ED2381E090E009F480E0DF91CF91C3
:1002B000089580E090E0FACF1F93CF93DF93282F2B
:1002C00030E0F901E855FE4F8491F901EC56FE4FFC
:1002D000D491F901E058FE4FC491CC23A9F0162F18
:1002E00081110E940A01EC2FF0E0EE0FFF1FE4598C
:1002F000FE4FA591B4918FB7F894EC91111108C0FD
:10030000D095DE23DC938FBFDF91CF911F910895AD
:10031000DE2BF8CFCF93DF9390E0FC01EC56FE4F3D
:10032000249180589E4FFC0184918823C9F090E06D
:10033000880F991FFC01EE59FE4FA591B491FC0165
:10034000E459FE4FC591D49161110DC09FB7F89447
:100350008C91209582238C938881282328839FBFAA
:10036000DF91CF910895623051F49FB7F8943C919A
:10037000822F809583238C93E8812E2BEFCF8FB72C
:10038000F894EC912E2B2C938FBFEACFCF93DF9371
:10039000EC0161E085E00E948A01209731F460E081
:1003A00085E0DF91CF910C945C01CF3FD10511F432
:1003B00061E0F6CFEDEAF1E0E491E33029F140F4B9
:1003C000E130B1F0E230D9F0C038D1058CF7E7CF99
:1003D000E73021F1E83051F1E430B1F7809180004D
:1003E000806280938000D0938B00C0938A0004C009
:1003F00084B5806884BDC7BDDF91CF91089584B571
:10040000806284BDC8BDF8CF8091800080688093F1
:100410008000D0938900C0938800EECF8091B00017
:1004200080688093B000C093B300E6CF8091B000A5
:1004300080628093B000C093B400DECF8E508064A1
:1004400080937C0080917A00806480937A00809110
:100450007A0086FDFCCF8091780090917900089514
:100460003FB7F8948091B1039091B203A091B30388
:10047000B091B40326B5A89B05C02F3F19F0019693
:10048000A11DB11D3FBFBA2FA92F982F8827BC01EE
:10049000CD01620F711D811D911D42E0660F771F16
:1004A000881F991F4A95D1F708958F929F92AF9216
:1004B000BF92CF92DF92EF92FF924B015C010E94BC
:1004C00030026B017C010E9430026C197D098E099B
:1004D0009F09683E734081059105A8F321E0821AC7
:1004E0009108A108B10888EEC80E83E0D81EE11C6F
:1004F000F11C81149104A104B10429F7FF90EF903D
:10050000DF90CF90BF90AF909F908F9008952FB7BE
:10051000F8946091AD037091AE038091AF03909118
:10052000B0032FBF0895AF92BF92CF92DF92EF92A8
:10053000FF920F931F93CF93DF936C017B018B018D
:10054000040F151FEB015E01AE18BF08C017D107DD
:1005500059F06991D601ED91FC910190F081E02D67
:10056000C6010995892B79F7C501DF91CF911F91BC
:100570000F91FF90EF90DF90CF90BF90AF900895D4
:10058000FC01538D448D252F30E0842F90E0821B99
:10059000930B541710F0CF96089501970895FC011E
:1005A000918D828D981761F0A28DAE0FBF2FB11D76
:1005B0005D968C91928D9F5F9F73928F90E00895CE
:1005C0008FEF9FEF0895FC01918D828D981731F088
:1005D000828DE80FF11D858D90E008958FEF9FEFDC
:1005E0000895FC01918D228D892F90E0805C9F4FB2
:1005F000821B91098F739927089587EB93E00E94DE
:10060000F10221E0892B09F420E0822F089580E097
:1006100090E0892B29F00E94FD0281110C940000CA
:100620000895FC01A48DA80FB92FB11DA35ABF4F87
:100630002C91848D90E001968F739927848FA689E1
:10064000B7892C93A089B1898C91837080648C9335
:10065000938D848D981306C00288F389E02D8081E4
:100660008F7D80830895EF92FF920F931F93CF9316
:10067000DF93EC0181E0888F9B8D8C8D98131AC0DD
:10068000E889F989808185FF15C09FB7F894EE89C4
:10069000FF896083E889F989808183708064808321
:1006A0009FBF81E090E0DF91CF911F910F91FF906C
:1006B000EF900895F62E0B8D10E00F5F1F4F0F7314
:1006C0001127E02E8C8D8E110CC00FB607FCFACFCF
:1006D000E889F989808185FFF5CFCE010E94110359
:1006E000F1CFEB8DEC0FFD2FF11DE35AFF4FF082A0
:1006F0009FB7F8940B8FEA89FB8980818062CFCF06
:10070000CF93DF93EC01888D8823B9F0AA89BB8948
:10071000E889F9898C9185FD03C0808186FD0DC033
:100720000FB607FCF7CF8C9185FFF2CF808185FF54
:10073000EDCFCE010E941103E9CFDF91CF91089553
:100740000F931F93CF93DF93FC0124853585232BD3
:10075000C1F4EC010E9487020C811D812E813F8132
:10076000601B710B820B930B088119812A813B81DD
:10077000601771078207930720F081E090E09D8762
:100780008C87DF91CF911F910F910895CF93DF93C5
:10079000EC010E9487026C837D838E839F831D867C
:1007A0001C861A861B86DF91CF9108958BE994E011
:1007B0000E94A0038091A7049091A804019721F5BD
:1007C000809194040E94330121E0892B09F420E0F8
:1007D00020939804809197042817B1F08BE994E056
:1007E0000E94C60380919804809397049091960488
:1007F000992329F0882329F01092990408958823D9
:10080000D9F310929A04089508950E94D603909106
:10081000960480919704992311F091E08927811122
:1008200008C090919A04911105C081E080939A04C8
:10083000089580E008950E94D603909196048091D7
:100840009704992311F091E08927882349F090912A
:100850009904911104C091E090939904089580E067
:100860000895CF93DF93EC010E94A0038C859D85B2
:10087000019739F4CE010E94C60381E0DF91CF9148
:10088000089580E0FBCFFC01108211821282138256
:10089000148215821682178211861086128613869C
:1008A00081E090E0958784870895EF92FF920F93FF
:1008B0001F93CF93DF930E9487020091B20410919F
:1008C000B3042091B4043091B50460177107820716
:1008D000930740F41092B2041092B3041092B4043F
:1008E0001092B5042091B604211119C00091B204F0
:1008F0001091B3042091B4043091B504601B710BC6
:10090000820B930B603D77408105910540F481E0B7
:10091000DF91CF911F910F91FF90EF90089510926A
:10092000B6040E9487026093B2047093B30480936C
:10093000B4049093B5041092AD041092AC041092DC
:10094000AB041092AA041092A90461E08091AF0454
:100950000E945C016AEF70E080E090E00E94550226
:1009600061E08091AF040E948A0160E08091AF0451
:100970000E945C0164E170E080E090E00E9455021A
:10098000F89461E08091AF040E945C018BE990E0F3
:100990000197F1F760E08091AF040E948A0110E0B6
:1009A00081E0C0E0D0E0E82EF12C8091AF040E94FD
:1009B00033018E159F0519F4DF5FDF3FB1F780919A
:1009C000AF040E943301DF3FC1F0C43098F0C0FD96
:1009D00011C0E12FE695E695E695F0E0E755FB4F6F
:1009E0009081990F90832091B1042D1710F491609C
:1009F00090831F5FCF5FC535A9F678941832B8F0A1
:100A00004091AD042091A9048091AA04280F3327B6
:100A1000331F8091AB04280F311D8091AC04820FED
:100A2000932F911D99274817190609F470CF80E07C
:100A30006FCFFC0101900020E9F73197AF01481B0F
:100A4000590BBC0187EB93E00C9493028F929F9219
:100A5000AF92BF920F931F93CF93DF93CDB7DEB7C3
:100A6000A1970FB6F894DEBF0FBECDBF19A24230DA
:100A700008F44AE08E010F5D1F4F842E912CB12C9B
:100A8000A12CA50194010E94B81CE62FB901CA014E
:100A9000EA30F4F4E05DD801EE938D01232B242B92
:100AA000252B79F790E080E0109719F0CD010E9496
:100AB0001905A1960FB6F894DEBF0FBECDBFDF912A
:100AC000CF911F910F91BF90AF909F908F900895FD
:100AD000E95CE1CFBC0190E080E04AE00C9426059F
:100AE0000C94190580E291E00C9419054F925F92E5
:100AF0006F927F928F929F92AF92BF92CF92DF922E
:100B0000EF92FF920F931F93CF936B017C01742E92
:100B1000AC019B010E94031E882399F083E291E0BF
:100B2000CF911F910F91FF90EF90DF90CF90BF90EA
:100B3000AF909F908F907F906F905F904F900C94AC
:100B4000190546015701E894B7F82FEF3FEF4FE73B
:100B50005FE7C501B4010E94031E81110DC02FEF94
:100B60003FEF4FE75FE7C501B4010E94F01A181686
:100B70001CF487E291E0D4CF2FEF3FEF4FE75FE423
:100B8000C701B6010E94FE1D18161CF48BE291E00D
:100B9000C7CF2FEF3FEF4FE75FECC701B6010E94D1
:100BA000F01A87FDF3CF20E030E0A901C701B601BC
:100BB0000E94F01A10E000E087FF0AC06DE287EBA8
:100BC00093E00E9433038C01F7FAF094F7F8F09465
:100BD000C0E060E070E080E09FE37C1641F020E040
:100BE00030E040E251E40E94561DCF5FF6CFA701EE
:100BF00096010E94EA1C2B013C010E94CF1D4B0173
:100C00005C014AE00E9426057C01E00EF11ECC2327
:100C1000A9F1C501B4010E94F51A9B01AC01C30101
:100C2000B2010E94E91C4B015C016EE287EB93E08C
:100C30000E943303E80EF91EC15000F120E030E0BD
:100C400040E251E4C501B4010E94561B2B013C0156
:100C50000E94CF1D4B01CB010E946A05E80EF91ED0
:100C6000B40190E080E00E94F51A9B01AC01C30141
:100C7000B2010E94E91C4B015C01DECFC701CF919C
:100C80001F910F91FF90EF90DF90CF90BF90AF90AA
:100C90009F908F907F906F905F904F900895CF932B
:100CA000DF930E947605EC010E9472058C0F9D1F58
:100CB000DF91CF910895CF93DF930E941905EC0146
:100CC0000E9472058C0F9D1FDF91CF910895209196
:100CD000B5033091B6032F5F3F4F3093B603209397
:100CE000B50340915404509155044115510519F034
:100CF0004217530734F48FE291E00E945B0680E0D4
:100D00000895813092401CF081E591E0F6CF81E0BA
:100D100008950C942C1C0C94241CCF93DF9300D0CA
:100D200000D0CDB7DEB744E050E0BC01CE01019663
:100D30000E94141C69817A818B819C810F900F9095
:100D40000F900F90DF91CF910895CF93DF93FC0127
:100D500024813581232B71F0C081D1816CE270E058
:100D6000CE010E943020009729F08C1B9D0BDF9153
:100D7000CF9108958FEF9FEFFACFFC018081918191
:100D8000009711F00C94481860E070E0CB010895D2
:100D9000CF93DF93DC0114962D913C911597232B73
:100DA00079F0FB01CD91DC9160817181CE010E94CF
:100DB0004B20009729F08C1B9D0BDF91CF9108955C
:100DC0008FEF9FEFFACFFC0124813581232B39F47B
:100DD00021E0FB018081882349F020E007C0808169
:100DE00091810E943B2021E0892BB9F7822F089541
:100DF0000F931F93CF93DF93EC0188819981009724
:100E000059F02A813B812617370730F081E0DF91C6
:100E1000CF911F910F9108958B016F5F7F4F0E94BB
:100E2000621F009759F0998388831B830A832C8162
:100E30003D81232B59F7FC011082E8CF80E0E7CFFA
:100E4000EF92FF920F931F93CF93DF93611571057C
:100E500041F480E0DF91CF911F910F91FF90EF90CF
:100E6000089541155105B1F07B01EC010C811D8104
:100E7000040F151FB8010E94F806882351F328813A
:100E800039818C819D81B701820F931F0E9444207C
:100E90001D830C8381E0DECFFC014481558160819C
:100EA000718189E195E00C942007FB0101900020FD
:100EB000E9F73197AF01461B570B0C942007CF93EE
:100EC000DF93EC0188819981009711F00E94D91E6F
:100ED000198218821D821C821B821A82DF91CF9197
:100EE0000895CF93DF93EC01FB014481558160812C
:100EF00071810E942007811103C0CE010E945F070B
:100F0000CE01DF91CF910895EF92FF920F931F933F
:100F1000CF93DF93EC017B018A01BA010E94F806AE
:100F200081110BC0CE010E945F07CE01DF91CF91EE
:100F30001F910F91FF90EF9008951D830C83B701CF
:100F4000888199810E944420F0CFFB01019000200C
:100F5000E9F73197AF01461B570B0C948407EF92CA
:100F6000FF920F931F93CF93DF93CDB7DEB7A19777
:100F70000FB6F894DEBF0FBECDBF7C01CB01BA0126
:100F8000F7011182108213821282158214828E015F
:100F90000F5F1F4F22E044E00E948617009789F000
:100FA000BC01C7010E94A507A1960FB6F894DEBF49
:100FB0000FBECDBFDF91CF911F910F91FF90EF90AA
:100FC0000895C7010E945F07EFCFCF93DF93EC0135
:100FD000FB018617970749F06081718161157105E2
:100FE00041F0448155810E948407CE01DF91CF9169
:100FF00008950E945F07F9CFFC01118210821382CD
:101000001282158214820C94E507FC011182108271
:101010001382128215821482FB0101900020E9F7ED
:101020003197AF01461B570B0C948407AF92BF92C8
:10103000CF92DF92EF92FF920F931F93CF93DF93A4
:101040006C015B017A0189012417350720F48F2D8B
:101050007901042F182F62E772E0C6010E9405088B
:10106000D5011496CD91DC91EC16FD06E0F40C1739
:101070001D0708F4E801D501ED91FC911197EC0FE3
:10108000FD1F108110826D917C916E0D7F1DC60138
:1010900061157105A1F00E94A507F501808191817C
:1010A000C80FD91F1883C601DF91CF911F910F91EF
:1010B000FF90EF90DF90CF90BF90AF9008950E9487
:1010C0005F07EBCFFC0180819181009711F00C94B8
:1010D000D91E08951F920F920FB60F9211242F93CD
:1010E0003F938F939F93AF93BF938091AD03909164
:1010F000AE03A091AF03B091B0033091AC0323E0F5
:10110000230F2D3758F50196A11DB11D2093AC0377
:101110008093AD039093AE03A093AF03B093B0035D
:101120008091B1039091B203A091B303B091B40345
:101130000196A11DB11D8093B1039093B203A093BA
:10114000B303B093B403BF91AF919F918F913F913F
:101150002F910F900FBE0F901F90189526E8230F28
:101160000296A11DB11DD2CF1F920F920FB60F9202
:1011700011242F933F934F935F936F937F938F939C
:101180009F93AF93BF93EF93FF9387EB93E00E94FE
:101190001103FF91EF91BF91AF919F918F917F913B
:1011A0006F915F914F913F912F910F900FBE0F90D4
:1011B0001F9018951F920F920FB60F9211242F9324
:1011C0008F939F93EF93FF93E091C703F091C80330
:1011D0008081E091CD03F091CE0382FD1BC0908110
:1011E0008091D0038F5F8F732091D103821741F0DC
:1011F000E091D003F0E0E954FC4F958F8093D00349
:10120000FF91EF919F918F912F910F900FBE0F90B3
:101210001F9018958081F4CFCF93DF93E7EBF3E035
:101220001382128288EE93E0A0E0B0E0848395837D
:10123000A683B78382E191E09183808385EC90E07F
:101240009587848784EC90E09787868780EC90E090
:10125000918B808B81EC90E0938B828B82EC90E081
:10126000958B848B86EC90E0978B868B118E128EFB
:10127000138E148E84E690E090935504809354046A
:1012800062E772E089E195E00E9405088BE095E055
:101290000E9443048DEF94E00E9443048FEE94E09B
:1012A0000E94430481EE94E00E94430483ED94E0A5
:1012B0000E94430485EC94E00E94430487EB94E091
:1012C0000E944304E9EAF4E08FE0868385E18783A6
:1012D00086E0808781E08587C4E9D4E08A831B8229
:1012E0001C821D821E828BE994E00E94430489E0E7
:1012F00090E09983888362E00E948A018AE090E00E
:10130000A0E0B0E08F839887A987BA8762E772E090
:101310008EE894E00E94050880E894E00E9443046F
:1013200082E794E00E94430484E694E00E94430430
:1013300086E594E0DF91CF910C944304CF93DF9343
:10134000CDB7DEB7EC970FB6F894DEBF0FBECDBFBA
:10135000789484B5826084BD84B5816084BD85B590
:10136000826085BD85B5816085BD80916E0081609C
:1013700080936E0010928100809181008260809342
:101380008100809181008160809381008091800044
:101390008160809380008091B10084608093B1006F
:1013A0008091B00081608093B00080917A00846069
:1013B00080937A0080917A00826080937A00809195
:1013C0007A00816080937A0080917A0080688093AF
:1013D0007A001092C10060E08091AF040E948A01FF
:1013E00061E08091AF040E945C011092B2041092FF
:1013F000B3041092B4041092B504E091C703F091C5
:10140000C80382E08083E091C303F091C40310829B
:10141000E091C503F091C6038FEC80831092CF0357
:10142000E091CB03F091CC0386E08083E091C90387
:10143000F091CA03808180618083E091C903F091BB
:10144000CA03808188608083E091C903F091CA0358
:10145000808180688083E091C903F091CA03808114
:101460008F7D808360E089E00E948A0160E08AE0ED
:101470000E948A0160E08BE00E948A0160E08CE0BB
:101480000E948A0160E081E10E948A0160E08AE0B6
:101490000E948A0161E082E00E948A0161E088E0A6
:1014A0000E948A0161E08DE00E948A0161E08EE085
:1014B0000E948A0161E087E00E948A0161E084E085
:1014C0000E948A0161E086E00E948A0160E088E073
:1014D0000E945C0160E08DE00E945C0160E08EE0B3
:1014E0000E945C0160E087E00E945C0160E084E0B3
:1014F0000E945C0160E086E00E945C0160E082E0A6
:101500000E945C011092700390E080E00E94C6018E
:1015100084E190E00E948D0660938F0370939003A6
:1015200080939103909392038EE190E00E948D0648
:1015300060938B0370938C0380938D0390938E0341
:101540008AE090E0A0E0B0E08093EF049093F00494
:10155000A093F104B093F20488E893E1A0E0B0E036
:101560008093E1049093E204A093E304B093E40435
:1015700088EE93E0A0E0B0E08093C5049093C604A9
:10158000A093C704B093C80488EB9BE0A0E0B0E050
:101590008093B7049093B804A093B904B093BA04AD
:1015A0008093720490937304A0937404B0937504B1
:1015B00080E49CE9A0E0B0E080936404909365042B
:1015C000A0936604B09367048CE291E0A0E0B0E0E1
:1015D0008093800490938104A0938204B093830449
:1015E00080E29EE4A0E0B0E080935604909357041C
:1015F000A0935804B093590484EF91E0A0E0B0E0C8
:101600008093D3049093D404A093D504B093D604CC
:101610000E941B040E94050487EB94E00E943104A1
:10162000882321F060E088E00E945C0182E794E07A
:101630000E943104882321F060E086E00E945C0172
:1016400084E694E00E943104882321F060E087E082
:101650000E945C0180916E03882309F4B4C080E885
:1016600094E00E943104C0907103D0907203E09026
:101670007303F0907403882309F46EC080916A03A9
:1016800090916B039C01990F440B550B29AF3AAF16
:101690004BAF5CAFCA01B9010E94F71A2B013C01A4
:1016A000AC019B01C701B6010E94E91C4B015C0122
:1016B00020E030E0A9010E94FE1D18160CF0BEC00B
:1016C000C501B4010E94C81D61157105F1F080E1EA
:1016D00097E20E94081E613A3FE0730714F060EA47
:1016E0007FE0CB01770FAA0BBB0B0097A105B105DB
:1016F00021F481E090E0A0E0B0E08093800490933A
:101700008104A0938204B093830420E030E0A90117
:10171000C701B6010E94FE1D20E030E040E05FE31B
:1017200087FD90C0C701B6010E94EA1C0E94C81D37
:1017300029AD3AAD4BAD5CAD6217730784079507D1
:101740000CF085C0809170038F3F31F090916F0352
:101750008F5F992309F497C020E030E040EA50E41D
:10176000C701B6010E94F01A87FF14C08091700370
:10177000813480F086E594E00E94A00380916204A9
:1017800090916304019731F481E48093700381E0C8
:1017900080936F0320E03CE34CE156E4C701B601BF
:1017A0000E94F01A811106C081E48093700381E0E9
:1017B00080936F0361E084E00E945C01809170037C
:1017C00090E00E94C60102E010E087EB93E00E94E7
:1017D000F102181619060CF0BFC587EB93E00E94C2
:1017E000CF02F82E89831A8241E050E0BE016F5F7C
:1017F0007F4F8EE894E00E94200761E070E080E077
:1018000090E00E9455023AE0F31619F04DE0F41210
:10181000DCCFE0908E04F0908F04E114F104B1F17C
:10182000D7018D917D01882389F1082E000C990B39
:101830000E941F20F70131978083F2CFC501B401C8
:10184000905840CFC701B6010E94E91C6FCF20E03D
:1018500030E0A901C701B6010E94FE1DA701960153
:1018600018160CF05058C301B2010E94F01A87FFFD
:1018700073CF80917003882309F46ECF90916F032A
:1018800091116ACF81508093700366CF6EE874E047
:10189000CE0107960E94FC076BE771E0CE0101962E
:1018A0000E940508BE016F5F7F4FCE0107960E9420
:1018B000C8067C01CE0101960E946208EF2809F05B
:1018C00043C0CE0107960E94A5062B853C8521507A
:1018D0003109AC0155274F5F5F4FBE01695F7F4FF4
:1018E000CE0101960E941608CE0101960E94BD0607
:1018F000F62ECE0101960E9462086F2D82E00E94B2
:101900005C0182E00E9433016C01990FEE08FF0830
:101910004AE0C701B601F7FE0DC06DE287EB93E028
:101920000E94330366277727CB016C197D098E0946
:101930009F094AE00E9426050E94720560ED77E04B
:1019400080E090E00E94550260E871E0CE010196CF
:101950000E940508BE016F5F7F4FCE0107960E946F
:10196000C8067C01CE0101960E946208EF2831F47E
:101970008091930391E089278093930366E871E057
:10198000CE0101960E940508BE016F5F7F4FCE0118
:1019900007960E94C8067C01CE0101960E9462084B
:1019A000EF2839F481E08093760386E891E00E9485
:1019B0005B066CE871E0CE0101960E940508BE014D
:1019C0006F5F7F4FCE0107960E94C8067C01CE0153
:1019D00001960E946208EF2831F4109276038CE899
:1019E00091E00E945B0662E971E0CE0101960E94DF
:1019F0000508BE016F5F7F4FCE0107960E94C806A3
:101A00007C01CE0101960E946208EF2831F4109209
:101A1000750382E991E00E945B0668E971E0CE01FE
:101A200001960E940508BE016F5F7F4FCE010796A9
:101A30000E94C8067C01CE0101960E946208EF2830
:101A400039F481E08093750388E991E00E945B0698
:101A50006EE971E0CE0101960E940508BE016F5F3C
:101A60007F4FCE0107960E94C8067C01CE010196E9
:101A70000E946208F7FC5AC020E030E04AE754E4D4
:101A800060917B0370917C0380917D0390917E0334
:101A90000E94561B6B017C01C0928F03D092900371
:101AA000E0929103F092920320E030E04AE754E4A0
:101AB00060917703709178038091790390917A0314
:101AC0000E94561B60938B0370938C0380938D034D
:101AD00090938E03C9AADAAAEBAAFCAA88E190E047
:101AE0000E946706882341F044E050E064E170E022
:101AF000CE01C1960E94321C80918B0390918C0381
:101B0000A0918D03B0918E038DAB9EABAFABB8AF00
:101B100082E290E00E946706882341F044E050E0B2
:101B20006EE170E0CE01C5960E94321C62EA71E05F
:101B3000CE0101960E940508BE016F5F7F4FCE0166
:101B400007960E94C8067C01CE0101960E94620899
:101B5000EF2809F070C0CE0107960E94A5067C010F
:101B6000FF24BFEFEB1AFB0A2B853C85215031097E
:101B7000A701BE01695F7F4FCE0101960E94160842
:101B8000CE0101960E94BD064B015C01CE0101967B
:101B90000E9462088CEA91E00E9470054AE0C5014B
:101BA000B4010E94260580EC91E00E945B062B8523
:101BB0003C8521503109A701BE01695F7F4FCE01ED
:101BC00001960E941608CE0101960E94BD069B0157
:101BD000AC01A8EEB3E00E946E1C61157105810591
:101BE000910521F461E070E080E090E0609364048E
:101BF000709365048093660490936704CE01019608
:101C00000E946208109371040093700484E694E0CB
:101C10000E94C60361E087E00E945C016091640459
:101C20007091650480916604909167044AE00E9477
:101C300026050E9472056AEC71E0CE0101960E94B1
:101C40000508BE016F5F7F4FCE0107960E94C80650
:101C50007C01CE0101960E946208EF2809F049C07C
:101C6000CE0107960E94A5062B853C85215031099F
:101C7000AC0155274F5F5F4FBE01695F7F4FCE01BB
:101C800001960E941608CE0101960E94BD066B01C6
:101C90007C01CE0101960E94620861E086E00E940C
:101CA0005C0184ED91E00E9470054AE0C701B60135
:101CB0000E94260580EC91E00E945B06A8EEB3E04E
:101CC000A70196010E946E1C6115710581059105A1
:101CD00021F461E070E080E090E060937204709322
:101CE0007304809374049093750482E794E00E94D7
:101CF000C60363EE71E0CE0101960E940508BE01A5
:101D00006F5F7F4FCE0107960E94C8067C01CE010F
:101D100001960E946208EF2809F049C0CE0107969B
:101D20000E94A5062B853C8521503109AC01552721
:101D30004F5F5F4FBE01695F7F4FCE0101960E94EA
:101D40001608CE0101960E94BD066B017C01CE01F2
:101D500001960E94620861E088E00E945C0189EEC1
:101D600091E00E9470054AE0C701B6010E94260575
:101D700080EC91E00E945B06A8EEB3E0A70196011B
:101D80000E946E1C611571058105910521F461E0C9
:101D900070E080E090E06093B7047093B8048093A3
:101DA000B9049093BA0487EB94E00E94C60365EFF0
:101DB00071E0CE0101960E940508BE016F5F7F4F62
:101DC000CE0107960E94C8067C01CE0101960E94B2
:101DD0006208EF2809F04FC080916F03882379F0E3
:101DE0008DEF91E00E945B06CE0107960E9462088B
:101DF00062E772E08EE894E00E94A507E6CC80914D
:101E00006D03882319F08BE192E0ECCF80916C0395
:101E10008111F9CFCE0107960E94A5062B853C853E
:101E200021503109AC0155274F5F5F4FBE01695FFB
:101E30007F4FCE0101960E941608CE0101960E94A6
:101E4000BD066B01CE0101960E946208C6018F3F5C
:101E5000910519F014F08FEF90E097FF02C090E029
:101E600080E010926E03809370030E94C60161E0CF
:101E700084E00E945C0124E030E050E040E0BE01DC
:101E8000695F7F4FCE0101960E94160869E372E0F8
:101E9000CE0101960E94E306F82ECE0101960E9423
:101EA0006208FF20B1F010926E031092700310923E
:101EB0006F0360E084E00E945C0190E080E00E949B
:101EC000C60160E088E00E945C0110936304009307
:101ED00062046EE372E0CE0101960E940508BE0125
:101EE0006F5F7F4FCE0107960E94C8067C01CE012E
:101EF00001960E946208EF2809F06EC080916F037E
:101F0000811172CF80916D0381117DCF80916C031F
:101F1000811179CFCE0107960E94A5062B853C85BD
:101F200021503109AC0155274F5F5F4FBE01695FFA
:101F30007F4FCE0101960E941608CE0101960E94A5
:101F4000BD064B01CE0101960E94620818141904C7
:101F50000CF0F5C1EFEF8E16910421F01CF08824EF
:101F60008A94912C90926B0380926A0361E084E0E2
:101F70000E945C0180916E0381110FC0D401D29642
:101F80002FEF30E00E941C1E2AE0959587957795EB
:101F900067952A95D1F76093700381E080936E0373
:101FA00010926F0320E137E240E050E020935604A6
:101FB00030935704409358045093590486E594E0B5
:101FC0000E94A0038091620490916304892B21F008
:101FD00086E594E00E94C60324E030E050E040E053
:101FE000BE01695F7F4FCE0101960E94160862E430
:101FF00072E0CE0101960E94E306F82ECE01019612
:102000000E946208FF2009F44AC026E030E045E063
:1020100050E0BE01695F7F4FCE0101960E94160815
:102020006AE871E0CE0101960E94E306F82ECE0127
:1020300001960E946208FF2091F087E492E00E94DE
:102040005B0660E08EE00E945C0164EF71E080E07E
:1020500090E00E94550261E08DE00E945C0126E064
:1020600030E045E050E0BE01695F7F4FCE01019650
:102070000E94160863E572E0CE0101960E94E30615
:10208000F82ECE0101960E946208FF2041F085E5FE
:1020900092E00E945B0660E08DE00E945C0125E01A
:1020A00030E050E040E0BE01695F7F4FCE01019615
:1020B0000E94160864E672E0CE0101960E94E306D3
:1020C000F82ECE0101960E946208FF2051F12BE00C
:1020D00030E046E050E0BE01695F7F4FCE010196DF
:1020E0000E941608CE0101960E94BD066B01CE012A
:1020F00001960E9462081C141D045CF48EE291E0BB
:102100000E946706882329F0B6018CE291E00E94C4
:102110004A1C8CE291E00E9489060E946A050E9496
:10212000720526E030E050E040E0BE01695F7F4F7D
:10213000CE0101960E9416086AE672E0CE01019671
:102140000E94E306F82ECE0101960E946208FF204D
:1021500009F490C00E94720590E080E00E948B0616
:10216000682F70E090E080E04AE00E94260581E759
:1021700092E00E9470058AE090E00E948B06682F32
:1021800070E090E080E04AE00E94260581E792E05E
:102190000E94700584E190E00E948D0642E00E945A
:1021A000760581E792E00E9470058EE190E00E9442
:1021B0008D0642E00E94760581E792E00E9470055C
:1021C00088E290E00E948B06682F70E090E080E04B
:1021D0004AE00E94260581E792E00E94700582E3B2
:1021E00090E00E9489060E946A0581E792E00E94C1
:1021F00070058CE390E00E9489060E946A0581E7E1
:1022000092E00E94700586E490E00E948B06682FA1
:1022100070E090E080E04AE00E94260581E792E0CD
:102220000E94700580E590E00E9489060E946A0580
:1022300081E792E00E9470058AE590E00E9489069D
:102240000E946A0581E792E00E94700584E690E0B2
:102250000E9489060E946A0581E792E00E9470054B
:102260008EE690E00E9489060E946A050E9472052F
:102270000E94720525E030E050E040E0BE01695F59
:102280007F4FCE0101960E94160863E772E0CE01EF
:1022900001960E94E306F82ECE0101960E94620884
:1022A000FF2009F4A1CD27E030E046E050E0BE0178
:1022B000695F7F4FCE0101960E9416086AE871E0BF
:1022C000CE0101960E94E306F82ECE0101960E94EF
:1022D0006208FF2091F089E792E00E945B0660E0CF
:1022E0008DE00E945C0164EF71E080E090E00E946C
:1022F000550261E08EE00E945C0127E030E046E09C
:1023000050E0BE01695F7F4FCE0101960E94160822
:1023100063E572E0CE0101960E94E306F82ECE013D
:1023200001960E946208FF2009F45ECD86E892E0E3
:102330000E945B0660E08EE00E945C0155CD60E08B
:1023400084E00E945C011092700390E080E00E94A3
:10235000C60110926E0340CE0E941B04882371F0C8
:102360000E9487026093A8037093A9038093AA0335
:102370009093AB0386E992E00E945B060E940504FD
:102380008823C1F00E9487020091A8031091A9033D
:102390002091AA033091AB03601B710B820B930B4E
:1023A000693B7B408105910508F45DC480EA92E0B9
:1023B0000E945B0683ED94E00E943104882309F4B7
:1023C000D6C262E772E0CE018B960E94050820918A
:1023D000700330E0A2E4B0E00E94DA1C2FEF30E09E
:1023E00040E050E00E944F1CCA01B9010E94F71A58
:1023F0006B017C018AE00E9433016BEB72E0892B58
:1024000011F062EC72E0CE018B960E94A50762E7A4
:1024100072E0CE0185960E94050882E00E94330199
:10242000019709F02AC481E10E94330140917F03A2
:10243000509180036091810370918203892B09F090
:1024400015C4CE0101960E94AF076BEC72E0CE017D
:1024500007960E940508BE016F5F7F4FCE01079669
:102460000E947107BC01CE0185960E94E507CE014E
:1024700007960E946208CE0101960E94620862E7F8
:1024800072E0CE014F960E94050887E00E9433015A
:1024900064EE72E0892B11F06FEE72E0CE014F9680
:1024A0000E94A5076BEF72E0CE0149960E940508D5
:1024B00086E00E9433016CEE72E0892B11F067EF29
:1024C00072E0CE0149960E94550760E073E0CE01AC
:1024D00043960E94050888E00E94330167EF72E08E
:1024E000892B11F06CEE72E0CE0143960E945507E5
:1024F000B090700367E073E0CE0107960E94050874
:10250000BE01695F7F4FCE0101960E94FC078E01DC
:10251000035F1F4F4AE0B8018B2D90E00E946F18B7
:10252000F80101900020E9F73197AF01401B510BF2
:10253000B801CE0101960E942007811104C0CE018E
:1025400001960E945F07BE016F5F7F4FC8010E9426
:10255000FC07CE0101960E946208CE0107960E94F8
:1025600062086EE073E089E195E00E94A507409162
:102570009403509195036091960370919703CE0157
:1025800001960E94AF07CE0101960E944C07CE0132
:1025900001960E94620840919803509199036091BE
:1025A0009A0370919B03CE0101960E94AF0760E1F0
:1025B00073E0CE0107960E940508BE016F5F7F4F52
:1025C000CE0107960E9471070E944C07CE01079624
:1025D0000E946208CE0101960E9462084091710338
:1025E000509172036091730370917403CE01019650
:1025F0000E94AF0760E173E0CE0107960E940508D4
:10260000BE016F5F7F4FCE0107960E9471070E9447
:102610004C07CE0107960E946208CE0101960E94E7
:102620006208B701A601CE0101960E94AF0760E1E2
:1026300073E0CE0107960E940508BE016F5F7F4FD1
:10264000CE0107960E9471070E944C07CE010796A3
:102650000E946208CE0101960E946208BE01655D7B
:102660007F4FCE0101960E94FC0760E173E0CE012E
:1026700007960E940508BE016F5F7F4FCE01079647
:102680000E9471070E944C07CE0107960E946208C3
:10269000CE0101960E946208BE016B5D7F4FCE01A4
:1026A00001960E94FC0760E173E0CE0107960E944C
:1026B0000508BE016F5F7F4FCE0107960E9471072C
:1026C0000E944C07CE0107960E946208CE01019637
:1026D0000E946208BE01615E7F4FCE0101960E949A
:1026E000FC0760E173E0CE0107960E940508BE0179
:1026F0006F5F7F4FCE0107960E9471070E944C07C3
:10270000CE0107960E946208CE0101960E946208DF
:10271000BE01675E7F4FCE0101960E94FC0760E11B
:1027200073E0CE0107960E940508BE016F5F7F4FE0
:10273000CE0107960E9471070E944C07CE010796B2
:102740000E946208CE0101960E946208BE016D5E81
:102750007F4FCE0101960E94FC0760E173E0CE013D
:1027600007960E940508BE016F5F7F4FCE01079656
:102770000E9471070E944C07CE0107960E946208D2
:10278000CE0101960E946208B801CE0101960E9416
:10279000FC0760E173E0CE0107960E940508BE01C8
:1027A0006F5F7F4FCE0107960E9471070E944C0712
:1027B000CE0107960E946208CE0101960E9462082F
:1027C00080916F03882351F080916E03882331F04C
:1027D00063E173E089E195E00E945507C0908F03A3
:1027E000D0909003E0909103F090920320E030E0CD
:1027F00048EC52E4C701B6010E94F01A87FD0BC0F5
:1028000020E030E046E953E4C701B6010E94FE1D16
:1028100018160CF039C2B701A601CE0101960E942C
:10282000AF076AE173E0CE0107960E940508BE017A
:102830006F5F7F4FCE0107960E9471070E944C0781
:10284000CE0107960E946208CE0101960E9462089E
:1028500081E080936D03C0908B03D0908C03E09057
:102860008D03F0908E0320E030E048EC52E4C70185
:10287000B6010E94F01A87FD0BC020E030E046E967
:1028800053E4C701B6010E94FE1D18160CF0FFC1EB
:1028900040918F0350919003609191037091920346
:1028A000CE0101960E94AF0762E273E0CE01079667
:1028B0000E940508BE016F5F7F4FCE0107960E9400
:1028C00071070E944C07CE0107960E946208CE0154
:1028D00001960E94620881E080936C036AE273E0D3
:1028E000CE0101960E94050860E173E0CE010796D3
:1028F0000E940508BE016F5F7F4FCE0107960E94C0
:1029000071070E944C07CE0107960E946208CE0113
:1029100001960E9462086FE273E089E195E00E94EF
:10292000550740911D0550911E0560911905709144
:102930001A0587EB93E00E9493020E947205CE0174
:102940000D960E946208CE0143960E946208CE0155
:1029500049960E946208CE014F960E946208CE01FD
:1029600085960E946208CE018B960E9462088FEEC7
:1029700094E00E943104882309F47AC281E10E9424
:102980001E02BC01990F880B990B0E94F71A209127
:10299000A4033091A5034091A6035091A7030E9480
:1029A000EA1C2B013C014092A4035092A5036092C3
:1029B000A6037092A70384E10E941E02BC01990F36
:1029C000880B990B0E94F71A2091A0033091A10364
:1029D0004091A2035091A3030E94EA1C4B015C01A9
:1029E0008092A0039092A103A092A203B092A303AD
:1029F00085E10E941E02BC01990F880B990B0E9471
:102A0000F71A20919C0330919D0340919E035091B1
:102A10009F030E94EA1C69AF7AAF8BAF9CAF6093B3
:102A20009C0370939D0380939E0390939F036091FA
:102A30000201709103016F5F7F4F709303016093F8
:102A40000201643671050CF4EEC0072E000C880BF1
:102A5000990B0E94F71A6B017C01AC019B01C30129
:102A6000B2010E94561D2B013C01A7019601C50130
:102A7000B4010E94561D4B015C01A701960169AD8E
:102A80007AAD8BAD9CAD0E94561D6B017C012AE096
:102A900038E240EA5BE3C301B2010E94561B609337
:102AA0007F0370938003809381039093820320E0DF
:102AB00030E040EA5BE3C501B4010E94561B60931D
:102AC0007B0370937C0380937D0390937E0320E0CF
:102AD00030E040EA5BE3C701B6010E94561B6093F9
:102AE0007703709378038093790390937A0320E0BF
:102AF00030E44CE950E4C501B4010E94561B20911A
:102B00008F033091900340919103509192030E9462
:102B1000E91C2CE437E34DE850E40E94561D609315
:102B20008703709388038093890390938A0320E03E
:102B300030E44CE950E4C701B6010E94561B2091D5
:102B40008B0330918C0340918D0350918E030E9432
:102B5000E91C2CE437E34DE850E40E94561D6B015C
:102B60007C01C0928303D0928403E0928503F092AB
:102B7000860380917603882341F010928703109298
:102B800088031092890310928A0380917503882329
:102B900041F01092870310928803109289031092DB
:102BA0008A031092A4031092A5031092A603109218
:102BB000A7031092A0031092A1031092A2031092F7
:102BC000A30310929C0310929D0310929E031092F7
:102BD0009F038090870390908803A0908903B09012
:102BE0008A03A5019401C501B4010E94031EA70137
:102BF0009601882309F472C1C701B6010E94031E21
:102C0000811148C0C0927103D0927203E0927303A5
:102C1000F092740381E08093930381E090E09093BD
:102C200003018093020180910001909101010196BE
:102C30009093010180930001883592400CF418C1F3
:102C40000E945504882351F08091B0048B3009F420
:102C50006CC020F08551823008F488C060E070E0DC
:102C600080EC9FE769C08EEA92E0A2CBCE0101968C
:102C70000E94AF0763ED72E0EACB6CED72E0CE012B
:102C800085960E94A507FBCB10926D03E4CD1092B0
:102C90006C0324CEA7019601C501B4010E94E91C72
:102CA00020E030E048E452E40E94FE1D181684F152
:102CB000A5019401C701B6010E94EA1C20E030E0A2
:102CC00040E05FE30E94561B6093710370937203B0
:102CD0008093730390937403A5019401C701B60117
:102CE0000E94E91C20E030E048E452E40E94FE1D0E
:102CF00018160CF092CF80E09CE3ACE1B6E4809330
:102D0000710390937203A0937303B093740385CF00
:102D100080E09CE3ACE1B6E480937103909372038E
:102D2000A0937303B0937403D7CF6091A90470E0AC
:102D300090E080E00E94F51A6093980370939903E5
:102D400080939A0390939B030E945504882349F033
:102D50008091B0048B3059F120F08551823008F415
:102D600097C060E070E080EC9FE728C06091A90404
:102D700070E090E080E00E94F51A20E030E040E84A
:102D800053E40E94561B6B017C016091AA0470E021
:102D900090E080E00E94F71AA70196010E94EA1CC9
:102DA00020E030E040E251E40E94561DC5CF609122
:102DB000AB0470E090E080E00E94F51A6093940309
:102DC0007093950380939603909397038091930358
:102DD000882309F449C00E94F0170E94F0170E944E
:102DE000F01781E393E00E94700560918F0370916A
:102DF0009003809191039091920344E050E00E94EF
:102E00004F068FE393E00E94700560918B037091F1
:102E10008C0380918D0390918E0344E050E00E94DA
:102E20004F068DE493E00E947005609187037091D6
:102E300088038091890390918A0342E00E9476057D
:102E400089E593E00E9470058DE593E00E9470058E
:102E50006091830370918403809185039091860330
:102E600042E050E00E944F061092010110920001D2
:102E700080E090E0892B11F40C940C0B0E94FD0271
:102E8000882311F40C940C0B0E9400000C940C0B82
:102E90001091AB04612F6F7770E090E080E00E94AA
:102EA000F71A20E030E040E853E40E94561B6B0123
:102EB0007C016091AC0470E090E080E00E94F71A21
:102EC000A70196010E94EA1C20E030E040E251E4B4
:102ED0000E94561D17FF72CF905870CFC701B601E0
:102EE0000E94031E882309F4D5CE8092710390922C
:102EF0007203A0927303B09274038CCE8EE894E0B8
:102F00000E94620889E195E00C946208EF920F93A9
:102F10001F93CF93DF93E80134E047FD34E1042EA3
:102F2000000C550B57FF03C0519541955109E32EF5
:102F3000022F242FAE010E94A918CE01DF91CF915C
:102F40001F910F91EF9008958F929F92AF92BF9231
:102F5000CF92DF92EF92FF92CF93DF93EC016881E3
:102F600079818A819B81611571058105910521F423
:102F700064E279ED8BE597E02DE133EF41E050E03D
:102F80000E944F1C49015A019B01AC01A7EAB1E420
:102F90000E946E1C6B017C01ACEEB4EFA5019401A4
:102FA0000E947C1CC60ED71EE81EF91EF7FE06C046
:102FB00081E0C81AD108E10880E8F80AC882D982FD
:102FC000EA82FB82C701B6019F77DF91CF91FF9024
:102FD000EF90DF90CF90BF90AF909F908F9008952B
:102FE0008F929F92AF92BF92CF92DF92EF92FF9219
:102FF0006091040170910501809106019091070193
:10300000611571058105910521F464E279ED8BE587
:1030100097E02DE133EF41E050E00E944F1C490161
:103020005A019B01AC01A7EAB1E40E946E1C6B013E
:103030007C01ACEEB4EFA50194010E947C1CC60E8D
:10304000D71EE81EF91EF7FE06C081E0C81AD10897
:10305000E10880E8F80AC0920401D0920501E092EC
:103060000601F0920701C701B6019F77FF90EF902C
:10307000DF90CF90BF90AF909F908F900895609316
:103080000401709305018093060190930701089550
:103090001F93FC0199278827BC01E89411911032F5
:1030A000E9F3193010F01E30C8F31B3251F01D3215
:1030B00049F4689406C00E947A18610F711D811D41
:1030C000911D119110531A30B0F33EF490958095F4
:1030D000709561957F4F8F4F9F4F1F910895BB272C
:1030E0004A3031F4992322F4BDE2909581959F4FA7
:1030F0000C949018592F482F372F262F660F771FC3
:10310000881F991F660F771F881F991F620F731FF3
:10311000841F951F660F771F881F991F0895BB276F
:10312000FB015527AA27880F991FAA1FA41710F083
:10313000A41B83955051B9F7A05DAA3308F0A95D8F
:10314000A193009779F7B111B1931192CB010C942F
:10315000E01AA9E0B0E0EFEAF8E10C94871C6A01FC
:10316000F22EB02E102FFBE3AF2EA01608F41BE3B7
:103170001F5F012F27E0AE014F5F5F4F0E94081ACB
:10318000BC018981982F9970913009F43FC09BE26E
:10319000E1FC04C09E2D9170E0FC3AC05E2D5071A0
:1031A000E82FE87083FF46C084E0911101C083E0FE
:1031B000EF2DE81B8F1508F0E0E0D6018E2F20E2FE
:1031C000552351F1992329F0D6019C93C60101960C
:1031D0006C0196012D5F3F4FE2FE24C08EE4D601C4
:1031E0008C9391E411969C93119712968C93D9012C
:1031F0008E2F90E281111BC0E20FF32FF11D108280
:103200008EEF9FEF2996ECE00C94A31C9DE2C6CFB5
:1032100090E2C4CF2D9381508111FCCFCE0ED11CF2
:10322000E0E0D0CF8EE6D6018C9391E6DBCF9D9384
:103230008150E0CF482F447082FF3DC084E091115F
:1032400001C083E08F1510F4EF2DE81BD6018E2FFF
:1032500020E2552309F1992329F0D6019C93C60158
:1032600001966C0196012D5F3F4FE2FE1BC089E481
:10327000D6018C938EE411968C93119786E4129666
:103280008C93D9018E2F90E2882309F4B5CF9D93BA
:103290008150FACF2D9381508111FCCFCE0ED11CDD
:1032A000E0E0D9CF89E6D6018C938EE611968C9317
:1032B000119786E6E4CF9B0177FF02C030E020E063
:1032C000A1E0B0E0911102C0B0E0A0E0F9013196B8
:1032D000AE0FBF1F8B2C912CBB2009F461C0540191
:1032E000EFEFAE1ABE0AAA0DBB1DFA161B0619F0A7
:1032F00014F04F2D4A1B511188C0E3FC59C07601D0
:10330000A42FB0E2A1114FC0C40ED11C992309F41F
:103310005BC040E0D6011196F60190836D01552304
:1033200009F448C0012F060F9A81582F507184FF6D
:1033300003C0913309F4015010160CF047C0093056
:1033400008F008E0EEE2FE2E5B01A01AB10885014C
:103350009194819491082F3F320729F4D601FC9271
:10336000F60131966F016217730794F10217130784
:103370007CF5DB01A21BB30BAA24A394B12CAC0EE9
:10338000BD1EAA0DBB1D11968C9121503109D6018D
:10339000119628153905F4F0F60180836D01DBCF15
:1033A000B12CA12CA0CFF701B1937F01A150AACFDE
:1033B0009111B0CFD601942F50E302C05D9391508C
:1033C0009111FCCFC40ED11C40E0ACCF01E0BACFCC
:1033D00080E3DBCF6217730731F4963388F49533BB
:1033E00011F4552369F0F6018083FD01842F90E2EA
:1033F000811108C0A40FB11D1C9290E080E002CFA3
:1034000081E3F1CF91938150F3CF911183CF8ACF94
:10341000283008F027E03327DA01990F311D87FDA6
:10342000916000966105710539F432602E5F3D931D
:1034300030E32A95E1F708959F3F30F08038710519
:10344000610509F03C5F3C5F3D93913008F0806876
:10345000911DDF93CF931F930F93FF92EF92192F3C
:10346000987F9695E92F96959695E90FFF27EE534D
:10347000FF4F99273327EE24FF24A701E70105908A
:103480000894079428F4360FE71EF81E491F511DB3
:10349000660F771F881F991F0694A1F70590079460
:1034A00028F4E70EF81E491F561FC11D770F881F0D
:1034B000991F661F0694A1F70590079428F4F80E4B
:1034C000491F561FC71FD11D880F991F661F771FE1
:1034D0000694A1F70590079420F4490F561FC71FC3
:1034E000D81F990F661F771F881F0694A9F784912C
:1034F0001095177041F0D695C79557954795F79455
:10350000E7941A95C1F7E8E6F0E0689415901591F4
:1035100035916591959105907FE27395E118F10AD7
:10352000430B560BC90BD009C0F7E10CF11E431F2A
:10353000561FC91FD01D7EF4703311F48A95E6CF53
:10354000E894015030F0080F0AF40027021708F43D
:10355000202F2395022F7A3328F079E37D932A9543
:10356000E9F710C07D932A9589F60694979567959B
:10357000379517951794E118F10A430B560BC90BB1
:10358000D00998F023957E9173957A3308F070E313
:103590007C932013B8F77E9170617D9330F0839512
:1035A00071E37D9370E32A95E1F71124EF90FF908A
:1035B0000F911F91CF91DF91992787FD90950895E5
:1035C000DC01FC01672F71917723E1F7329704C08A
:1035D0007C916D9370836291AE17BF07C8F3089515
:1035E0000E94321B08F481E00895E89409C097FB1B
:1035F0003EF490958095709561957F4F8F4F9F4FCA
:103600009923A9F0F92F96E9BB279395F69587950D
:1036100077956795B795F111F8CFFAF4BB0F11F4D0
:1036200060FF1BC06F5F7F4F8F4F9F4F16C0882377
:1036300011F096E911C0772321F09EE8872F762FAD
:1036400005C0662371F096E8862F70E060E02AF0EE
:103650009A95660F771F881FDAF7880F96958795DA
:1036600097F90895990F0008550FAA0BE0E8FEEFAF
:1036700016161706E807F907C0F012161306E40736
:10368000F50798F0621B730B840B950B39F40A262F
:1036900061F0232B242B252B21F408950A2609F40D
:1036A000A140A6958FEF811D811D08950E94691B81
:1036B0000C94DA1B0E94CC1B38F00E94D31B20F024
:1036C000952311F00C94C31B0C94C91B11240C946A
:1036D0000E1C0E94EB1B70F3959FC1F3950F50E0F9
:1036E000551F629FF001729FBB27F00DB11D639FB4
:1036F000AA27F00DB11DAA1F649F6627B00DA11D5A
:10370000661F829F2227B00DA11D621F739FB00DFF
:10371000A11D621F839FA00D611D221F749F33276F
:10372000A00D611D231F849F600D211D822F762F08
:103730006A2F11249F5750409AF0F1F088234AF0E5
:10374000EE0FFF1FBB1F661F771F881F9150504051
:10375000A9F79E3F510580F00C94C31B0C940E1CDE
:103760005F3FE4F3983ED4F3869577956795B795D8
:10377000F795E7959F5FC1F7FE2B880F911D9695F2
:10378000879597F9089597F99F6780E870E060E062
:1037900008959FEF80EC089500240A9416161706EA
:1037A00018060906089500240A9412161306140632
:1037B00005060895092E0394000C11F4882352F095
:1037C000BB0F40F4BF2B11F460FF04C06F5F7F4F4D
:1037D0008F4F9F4F089557FD9058440F551F59F034
:1037E0005F3F71F04795880F97FB991F61F09F3FEE
:1037F00079F087950895121613061406551FF2CF17
:103800004695F1DF08C0161617061806991FF1CF66
:1038100086957105610508940895E894BB2766278D
:103820007727CB0197F90895DC01CB01FC01F999C9
:10383000FECF06C0F2BDE1BDF89A319600B40D92FC
:1038400041505040B8F70895F999FECF92BD81BD1F
:10385000F89A992780B50895A8E1B0E042E050E0D9
:103860000C94161CDC01CB0103C02D910E943D1C61
:1038700041505040D0F70895262FF999FECF1FBA36
:1038800092BD81BD20BD0FB6F894FA9AF99A0FBE89
:10389000019608950E943C1C272F0C943D1C052E78
:1038A00097FB1EF400940E94661C57FD07D00E94EF
:1038B000B81C07FC03D04EF40C94661C5095409540
:1038C000309521953F4F4F4F5F4F089590958095CC
:1038D000709561957F4F8F4F9F4F08950E94DA1C1E
:1038E000A59F900DB49F900DA49F800D911D112454
:1038F0000895B7FF0C946E1C0E946E1C821B930BE4
:1039000008952F923F924F925F926F927F928F9283
:103910009F92AF92BF92CF92DF92EF92FF920F935E
:103920001F93CF93DF93CDB7DEB7CA1BDB0B0FB668
:10393000F894DEBF0FBECDBF09942A883988488825
:103940005F846E847D848C849B84AA84B984C884BB
:10395000DF80EE80FD800C811B81AA81B981CE0FB2
:10396000D11D0FB6F894DEBF0FBECDBFED01089597
:10397000A1E21A2EAA1BBB1BFD010DC0AA1FBB1F73
:10398000EE1FFF1FA217B307E407F50720F0A21BE5
:10399000B30BE40BF50B661F771F881F991F1A9452
:1039A00069F760957095809590959B01AC01BD017C
:1039B000CF010895A29FB001B39FC001A39F700DD6
:1039C000811D1124911DB29F700D811D1124911D27
:1039D00008955058BB27AA270E94011D0C94DA1B9A
:1039E0000E94CC1B38F00E94D31B20F039F49F3F7B
:1039F00019F426F40C94C91B0EF4E095E7FB0C9423
:103A0000C31BE92F0E94EB1B58F3BA176207730719
:103A10008407950720F079F4A6F50C940D1C0EF49C
:103A2000E0950B2EBA2FA02D0B01B90190010C01CE
:103A3000CA01A0011124FF27591B99F0593F50F4E6
:103A4000503E68F11A16F040A22F232F342F44273E
:103A5000585FF3CF469537952795A795F040539536
:103A6000C9F77EF41F16BA0B620B730B840BBAF006
:103A70009150A1F0FF0FBB1F661F771F881FC2F771
:103A80000EC0BA0F621F731F841F48F48795779585
:103A90006795B795F7959E3F08F0B0CF9395880F3F
:103AA00008F09927EE0F9795879508950E946A1D53
:103AB0000C94DA1B0E94D31B58F00E94CC1B40F0E0
:103AC00029F45F3F29F00C94C31B51110C940E1C78
:103AD0000C94C91B0E94EB1B68F39923B1F3552387
:103AE00091F3951B550BBB27AA2762177307840711
:103AF00038F09F5F5F4F220F331F441FAA1FA9F3A7
:103B000035D00E2E3AF0E0E832D091505040E69594
:103B1000001CCAF72BD0FE2F29D0660F771F881FF5
:103B2000BB1F261737074807AB07B0E809F0BB0BE8
:103B3000802DBF01FF2793585F4F3AF09E3F5105FC
:103B400078F00C94C31B0C940E1C5F3FE4F3983E7A
:103B5000D4F3869577956795B795F7959F5FC9F7E5
:103B6000880F911D9695879597F90895E1E0660F66
:103B7000771F881FBB1F621773078407BA0720F0DF
:103B8000621B730B840BBA0BEE1F88F7E095089548
:103B90000E94CF1D6894B1110C940E1C08950E94D0
:103BA000F31B88F09F5798F0B92F9927B751B0F0C1
:103BB000E1F0660F771F881F991F1AF0BA95C9F7B1
:103BC00014C0B13091F00E940D1CB1E008950C9426
:103BD0000D1C672F782F8827B85F39F0B93FCCF3D9
:103BE000869577956795B395D9F73EF4909580952E
:103BF000709561957F4F8F4F9F4F08950E94321BA4
:103C000008F48FEF08950E94321B880B990B0895DA
:103C100097FB072E16F4009407D077FD09D00E9479
:103C2000231E07FC05D03EF4909581959F4F089583
:103C3000709561957F4F08950E94DA1CB7FF089533
:103C4000821B930B0895AA1BBB1B51E107C0AA1F3F
:103C5000BB1FA617B70710F0A61BB70B881F991F2D
:103C60005A95A9F780959095BC01CD010895EE0F66
:103C7000FF1F0590F491E02D09940F931F93CF93AC
:103C8000DF938230910510F482E090E0E09121050D
:103C9000F091220530E020E0B0E0A0E0309799F408
:103CA0002115310509F44AC0281B390B2430310590
:103CB000D8F58A819B816115710589F1FB01938398
:103CC0008283FE0111C04081518102811381481716
:103CD0005907E0F04817590799F4109761F01296C8
:103CE0000C93129713961C933296CF01DF91CF91CC
:103CF0001F910F9108950093210510932205F4CF91
:103D00002115310551F04217530738F0A901DB01A5
:103D10009A01BD01DF01F801C1CFEF01F9CF909306
:103D2000220580932105CDCFFE01E20FF31F819381
:103D300091932250310939832883D7CF20911F05D1
:103D400030912005232B41F420910A0130910B0181
:103D50003093200520931F0520910801309109011F
:103D60002115310541F42DB73EB740910C0150911A
:103D70000D01241B350BE0911F05F0912005E21782
:103D8000F307A0F42E1B3F0B2817390778F0AC017E
:103D90004E5F5F4F2417350748F04E0F5F1F50935B
:103DA000200540931F05819391939FCFF0E0E0E0C1
:103DB0009CCFCF93DF930097E9F0FC0132971382F9
:103DC0001282A0912105B0912205ED0130E020E0A2
:103DD0001097A1F420813181820F931F20911F053C
:103DE000309120052817390709F061C0F0932005AC
:103DF000E0931F05DF91CF910895EA01CE17DF0709
:103E0000E8F54A815B819E0141155105B1F7E90151
:103E1000FB83EA8349915991C40FD51FEC17FD0725
:103E200061F4808191810296840F951FE901998345
:103E30008883828193819B838A83F0E0E0E01296FD
:103E40008D919C9113970097B9F52D913C91119705
:103E5000CD010296820F931F20911F0530912005FE
:103E60002817390739F6309751F51092220510922C
:103E70002105B0932005A0931F05BCCFD383C28337
:103E800040815181840F951FC817D90761F44E5F97
:103E90005F4F88819981480F591F518340838A81E0
:103EA0009B81938382832115310509F0B0CFF09374
:103EB0002205E09321059ECFFD01DC01C0CF1382D6
:103EC0001282D7CFB0E0A0E0E8E6FFE10C94831CBB
:103ED0008C01009751F4CB010E943D1E8C01C8015A
:103EE000CDB7DEB7E0E10C949F1CFC01E60FF71F95
:103EF0009C0122503109E217F30708F49DC0D90153
:103F0000CD91DC911197C617D70798F0C530D10530
:103F100030F3CE0104978617970708F3C61BD70B1B
:103F20002297C193D1936D937C93CF010E94D91EA8
:103F3000D6CF5B01AC1ABD0A4C018C0E9D1EA09120
:103F40002105B0912205512C412CF12CE12C109728
:103F500031F580911F05909120058815990509F08C
:103F60005CC04616570608F058C080910801909131
:103F70000901009741F48DB79EB740910C01509113
:103F80000D01841B950BE817F90708F055C0F09355
:103F90002005E0931F05F90171836083A0CF8D9107
:103FA0009C91119712966C90129713967C90139790
:103FB000A815B90559F56C0142E0C40ED11CCA140C
:103FC000DB0420F1AC014A195B09DA01129615975E
:103FD00080F06282738251834083D9016D937C9318
:103FE000E114F10471F0D7011396FC93EE9312974C
:103FF00076CF22968C0F9D1FF90191838083F30168
:10400000EFCFF0932205E093210569CF48165906BA
:1040100008F42C017D01D3019ACFCB010E943D1EF3
:104020007C01009749F0AE01B8010E942720C80129
:104030000E94D91E870153CF10E000E050CF9111AC
:10404000089581568A5108F4805285580895FB01DD
:10405000DC0102C001900D9241505040D8F7089504
:10406000FC018191861721F08823D9F799270895BB
:104070003197CF010895FB01DC018D9101908019EA
:104080000110D9F3990B0895FB01DC0101900D9209
:104090000020E1F70895FB0151915523A9F0BF01DC
:1040A000DC014D9145174111E1F759F4CD01019023
:1040B000002049F04D9140154111C9F3FB01411118
:1040C000EFCF81E090E00197089510E0CFEDD0E0D0
:1040D00004C0FE010E94371E2196C03ED107C9F7D9
:0440E000F894FFCF82
:1040E4000100010001000000000023058000000021
:1040F400000033039302C0028003F102CF02E30203
:104104000D0A006E616E00696E66006F766600458A
:1041140078636565646564206D6178696D756D208B
:104124006E756D626572206F66207772697465734F
:1041340000417474656D707420746F2077726974B3
:1041440065206F757473696465206F6620454550FA
:10415400524F4D206D656D6F7279004C483253009B
:10416400444542554700444553503100415456504C
:1041740031004154565032004445535032004353A9
:10418400500052455345545F494E560052455345DD
:104194005420494E564552534F5220504F522000FE
:1041A40020534547554E444F530052455345545FA1
:1041B4003132560052455345542031325620504F27
:1041C400522000424F4D4241004C49474120424F4A
:1041D4004D4241200054555242494E4100505245EF
:1041E4005353414F204445205345475552414EC3F4
:1041F4008741204154495641444F0043414C494270
:104204005241522053454E534F524553204445206A
:104214005052455353C3834F0053544F500053439C
:104224005400505F494E00505F494E204C4947416D
:10423400444F003000505F494E204445534C494799
:1042440041444F00545F53455000454550524F4D33
:10425400000900505F4F555400505F4F5554204C97
:10426400494741444F00505F4F5554204445534CF7
:10427400494741444F004C4947415F54454C410034
:1042840054455354455F5052455353414F00545283
:104294004F43415F4741534F534100494E565F4F8F
:1042A4004B00494E565F4641494C004832535F4FDC
:1042B4006B20004832535F4572722000483253200D
:1042C4004F6666005253545F494E563A4F4E005261
:1042D40053545F494E563A4F4646003132763A00BF
:1042E400424F4D42413A00416E56616C3A003C00E7
:1042F4002C20002C2050534547002C204353503190
:1043040020002C2053435032200056312E32003EE0
:104314000043414C49425F4D50585F413A200043AD
:10432400414C49425F4D50585F423A2000535F5020
:104334005245535320313A2000202D2000535F5022
:0A4344005245535320323A20000086
:00000001FF
