:020000040000FA
:100000000C94E0000C9408010C9408010C94080175
:100010000C9408010C9408010C9408010C9408013C
:100020000C9408010C9408010C9408010C9408012C
:100030000C9408010C9408010C9408010C9408011C
:100040000C946A080C9408010C94DA080C94B40817
:100050000C9408010C9408010C9408010C940801FC
:100060000C9408010C94080100407A10F35A00A087
:10007000724E18090010A5D4E80000E87648170071
:1000800000E40B54020000CA9A3B000000E1F505B1
:10009000000080969800000040420F000000A086FB
:1000A00001000000102700000000E803000000002D
:1000B0006400000000000A000000000001000000D1
:1000C00000002C76D888DC674F0823DFC1DFAE59EB
:1000D000E1B1B796E5E3E453C63AE651997696E87E
:1000E000E6C28426EB898C9B62ED407C6FFCEFBC02
:1000F0009C9F40F2BAA56FA5F490055A2AF75C932D
:100100006B6CF9676DC11BFCE0E40D47FEF520E662
:10011000B500D0ED902E0300943577050080841E45
:10012000080000204E0A000000C80C333333330FA0
:10013000986E12831141EF8D2114893BE65516CF3D
:10014000FEE6DB18D1844B381BF77C1D901DA4BB49
:10015000E424203284725E228100C9F124ECA1E5FE
:100160003D2700000000240027002A0000000000B6
:10017000250028002B000000000023002600290095
:10018000040404040404040402020202020203033D
:100190000303030301020408102040800102040845
:1001A00010200102040810200000000800020100D5
:1001B0000003040700000000000000000C09841781
:1001C00011241FBECFEFD8E0DEBFCDBF13E0A0E00B
:1001D000B1E0E0EFF0E402C005900D92A836B1075F
:1001E000D9F725E0A8E6B3E001C01D92AF32B2070F
:1001F000E1F710E0CFEDD0E004C02197FE010E94AE
:100200003D1ECE3DD107C9F70E94A2090C946B2078
:100210000C940000833081F028F4813099F0823012
:10022000A9F008958730A9F08830C9F08430B1F47E
:10023000809180008F7D03C0809180008F778093B4
:100240008000089584B58F7784BD089584B58F7D2F
:10025000FBCF8091B0008F778093B000089580919C
:10026000B0008F7DF9CFCF93DF93282F30E0F901D5
:10027000E855FE4F8491F901EC56FE4FD491F901F7
:10028000E058FE4FC491CC23A1F081110E940A01D5
:10029000EC2FF0E0EE0FFF1FEA58FE4FA591B4914E
:1002A000EC91ED2381E090E009F480E0DF91CF91C3
:1002B000089580E090E0FACF1F93CF93DF93282F2B
:1002C00030E0F901E855FE4F8491F901EC56FE4FFC
:1002D000D491F901E058FE4FC491CC23A9F0162F18
:1002E00081110E940A01EC2FF0E0EE0FFF1FE4598C
:1002F000FE4FA591B4918FB7F894EC91111108C0FD
:10030000D095DE23DC938FBFDF91CF911F910895AD
:10031000DE2BF8CFCF93DF9390E0FC01EC56FE4F3D
:10032000249180589E4FFC0184918823C9F090E06D
:10033000880F991FFC01EE59FE4FA591B491FC0165
:10034000E459FE4FC591D49161110DC09FB7F89447
:100350008C91209582238C938881282328839FBFAA
:10036000DF91CF910895623051F49FB7F8943C919A
:10037000822F809583238C93E8812E2BEFCF8FB72C
:10038000F894EC912E2B2C938FBFEACFCF93DF9371
:10039000EC0161E085E00E948A01209731F460E081
:1003A00085E0DF91CF910C945C01CF3FD10511F432
:1003B00061E0F6CFEDEAF1E0E491E33029F140F4B9
:1003C000E130B1F0E230D9F0C038D1058CF7E7CF99
:1003D000E73021F1E83051F1E430B1F7809180004D
:1003E000806280938000D0938B00C0938A0004C009
:1003F00084B5806884BDC7BDDF91CF91089584B571
:10040000806284BDC8BDF8CF8091800080688093F1
:100410008000D0938900C0938800EECF8091B00017
:1004200080688093B000C093B300E6CF8091B000A5
:1004300080628093B000C093B400DECF8E508064A1
:1004400080937C0080917A00806480937A00809110
:100450007A0086FDFCCF8091780090917900089514
:100460003FB7F8948091AF039091B003A091B1038E
:10047000B091B20326B5A89B05C02F3F19F0019695
:10048000A11DB11D3FBFBA2FA92F982F8827BC01EE
:10049000CD01620F711D811D911D42E0660F771F16
:1004A000881F991F4A95D1F708958F929F92AF9216
:1004B000BF92CF92DF92EF92FF924B015C010E94BC
:1004C00030026B017C010E9430026C197D098E099B
:1004D0009F09683E734081059105A8F321E0821AC7
:1004E0009108A108B10888EEC80E83E0D81EE11C6F
:1004F000F11C81149104A104B10429F7FF90EF903D
:10050000DF90CF90BF90AF909F908F9008952FB7BE
:10051000F8946091AB037091AC038091AD0390911E
:10052000AE032FBF0895AF92BF92CF92DF92EF92AA
:10053000FF920F931F93CF93DF936C017B018B018D
:10054000040F151FEB015E01AE18BF08C017D107DD
:1005500059F06991D601ED91FC910190F081E02D67
:10056000C6010995892B79F7C501DF91CF911F91BC
:100570000F91FF90EF90DF90CF90BF90AF900895D4
:10058000FC01538D448D252F30E0842F90E0821B99
:10059000930B541710F0CF96089501970895FC011E
:1005A000918D828D981761F0A28DAE0FBF2FB11D76
:1005B0005D968C91928D9F5F9F73928F90E00895CE
:1005C0008FEF9FEF0895FC01918D828D981731F088
:1005D000828DE80FF11D858D90E008958FEF9FEFDC
:1005E0000895FC01918D228D892F90E0805C9F4FB2
:1005F000821B91098F739927089585EB93E00E94E0
:10060000F10221E0892B09F420E0822F089580E097
:1006100090E0892B29F00E94FD0281110C940000CA
:100620000895FC01A48DA80FB92FB11DA35ABF4F87
:100630002C91848D90E001968F739927848FA689E1
:10064000B7892C93A089B1898C91837080648C9335
:10065000938D848D981306C00288F389E02D8081E4
:100660008F7D80830895EF92FF920F931F93CF9316
:10067000DF93EC0181E0888F9B8D8C8D98131AC0DD
:10068000E889F989808185FF15C09FB7F894EE89C4
:10069000FF896083E889F989808183708064808321
:1006A0009FBF81E090E0DF91CF911F910F91FF906C
:1006B000EF900895F62E0B8D10E00F5F1F4F0F7314
:1006C0001127E02E8C8D8E110CC00FB607FCFACFCF
:1006D000E889F989808185FFF5CFCE010E94110359
:1006E000F1CFEB8DEC0FFD2FF11DE35AFF4FF082A0
:1006F0009FB7F8940B8FEA89FB8980818062CFCF06
:10070000CF93DF93EC01888D8823B9F0AA89BB8948
:10071000E889F9898C9185FD03C0808186FD0DC033
:100720000FB607FCF7CF8C9185FFF2CF808185FF54
:10073000EDCFCE010E941103E9CFDF91CF91089553
:100740000F931F93CF93DF93FC0124853585232BD3
:10075000C1F4EC010E9487020C811D812E813F8132
:10076000601B710B820B930B088119812A813B81DD
:10077000601771078207930720F081E090E09D8762
:100780008C87DF91CF911F910F910895CF93DF93C5
:10079000EC010E9487026C837D838E839F831D867C
:1007A0001C861A861B86DF91CF91089587EA94E014
:1007B0000E94A0038091B3049091B404019721F5A5
:1007C0008091A0040E94330121E0892B09F420E0EC
:1007D0002093A4048091A3042817B1F087EA94E041
:1007E0000E94C6038091A4048093A3049091A20464
:1007F000992329F0882329F01092A50408958823CD
:10080000D9F31092A604089508950E94D6039091FA
:10081000A2048091A304992311F091E0892781110A
:1008200008C09091A604911105C081E08093A604B0
:10083000089580E008950E94D6039091A2048091CB
:10084000A304992311F091E08927882349F090911E
:10085000A504911104C091E09093A504089580E04F
:100860000895CF93DF93EC010E94A0038C859D85B2
:10087000019739F4CE010E94C60381E0DF91CF9148
:10088000089580E0FBCFFC01108211821282138256
:10089000148215821682178211861086128613869C
:1008A00081E090E0958784870895EF92FF920F93FF
:1008B0001F93CF93DF930E9487020091BE04109193
:1008C000BF042091C0043091C104601771078207F2
:1008D000930740F41092BE041092BF041092C0041B
:1008E0001092C1042091C204211119C00091BE04CC
:1008F0001091BF042091C0043091C104601B710BA2
:10090000820B930B603D77408105910540F481E0B7
:10091000DF91CF911F910F91FF90EF90089510926A
:10092000C2040E9487026093BE047093BF04809348
:10093000C0049093C1041092B9041092B8041092AC
:10094000B7041092B6041092B50461E08091BB0424
:100950000E945C016AEF70E080E090E00E94550226
:1009600061E08091BB040E948A0160E08091BB0439
:100970000E945C0164E170E080E090E00E9455021A
:10098000F89461E08091BB040E945C018BE990E0E7
:100990000197F1F760E08091BB040E948A0110E0AA
:1009A00081E0C0E0D0E0E82EF12C8091BB040E94F1
:1009B00033018E159F0519F4DF5FDF3FB1F780919A
:1009C000BB040E943301DF3FC1F0C43098F0C0FD8A
:1009D00011C0E12FE695E695E695F0E0EB54FB4F6C
:1009E0009081990F90832091BD042D1710F4916090
:1009F00090831F5FCF5FC535A9F678941832B8F0A1
:100A00004091B9042091B5048091B604280F332792
:100A1000331F8091B704280F311D8091B804820FD5
:100A2000932F911D99274817190609F470CF80E07C
:100A30006FCFFC0101900020E9F73197AF01481B0F
:100A4000590BBC0185EB93E00C9493028F929F921B
:100A5000AF92BF920F931F93CF93DF93CDB7DEB7C3
:100A6000A1970FB6F894DEBF0FBECDBF19A24230DA
:100A700008F44AE08E010F5D1F4F842E912CB12C9B
:100A8000A12CA50194010E94BE1CE62FB901CA0148
:100A9000EA30F4F4E05DD801EE938D01232B242B92
:100AA000252B79F790E080E0109719F0CD010E9496
:100AB0001905A1960FB6F894DEBF0FBECDBFDF912A
:100AC000CF911F910F91BF90AF909F908F900895FD
:100AD000E95CE1CFBC0190E080E04AE00C9426059F
:100AE0000C9419058EE191E00C9419054F925F92D8
:100AF0006F927F928F929F92AF92BF92CF92DF922E
:100B0000EF92FF920F931F93CF936B017C01742E92
:100B1000AC019B010E94091E882399F081E291E0BB
:100B2000CF911F910F91FF90EF90DF90CF90BF90EA
:100B3000AF909F908F907F906F905F904F900C94AC
:100B4000190546015701E894B7F82FEF3FEF4FE73B
:100B50005FE7C501B4010E94091E81110DC02FEF8E
:100B60003FEF4FE75FE7C501B4010E94F61A181680
:100B70001CF485E291E0D4CF2FEF3FEF4FE75FE425
:100B8000C701B6010E94041E18161CF489E291E008
:100B9000C7CF2FEF3FEF4FE75FECC701B6010E94D1
:100BA000F61A87FDF3CF20E030E0A901C701B601B6
:100BB0000E94F61A10E000E087FF0AC06DE285EBA4
:100BC00093E00E9433038C01F7FAF094F7F8F09465
:100BD000C0E060E070E080E09FE37C1641F020E040
:100BE00030E040E251E40E945C1DCF5FF6CFA701E8
:100BF00096010E94F01C2B013C010E94D51D4B0167
:100C00005C014AE00E9426057C01E00EF11ECC2327
:100C1000A9F1C501B4010E94FB1A9B01AC01C301FB
:100C2000B2010E94EF1C4B015C016EE285EB93E088
:100C30000E943303E80EF91EC15000F120E030E0BD
:100C400040E251E4C501B4010E945C1B2B013C0150
:100C50000E94D51D4B01CB010E946A05E80EF91ECA
:100C6000B40190E080E00E94FB1A9B01AC01C3013B
:100C7000B2010E94EF1C4B015C01DECFC701CF9196
:100C80001F910F91FF90EF90DF90CF90BF90AF90AA
:100C90009F908F907F906F905F904F900895CF932B
:100CA000DF930E947605EC010E9472058C0F9D1F58
:100CB000DF91CF910895CF93DF930E941905EC0146
:100CC0000E9472058C0F9D1FDF91CF910895209196
:100CD000B3033091B4032F5F3F4F3093B40320939D
:100CE000B30340915204509153044115510519F03A
:100CF0004217530734F48DE291E00E945B0680E0D6
:100D00000895813092401CF08FE491E0F6CF81E0AD
:100D100008950C94321C0C942A1CCF93DF9300D0BE
:100D200000D0CDB7DEB744E050E0BC01CE01019663
:100D30000E941A1C69817A818B819C810F900F908F
:100D40000F900F90DF91CF910895CF93DF93FC0127
:100D500024813581232B71F0C081D1816CE270E058
:100D6000CE010E943620009729F08C1B9D0BDF914D
:100D7000CF9108958FEF9FEFFACFFC018081918191
:100D8000009711F00C944E1860E070E0CB010895CC
:100D9000CF93DF93DC0114962D913C911597232B73
:100DA00079F0FB01CD91DC9160817181CE010E94CF
:100DB0005120009729F08C1B9D0BDF91CF91089556
:100DC0008FEF9FEFFACFFC0124813581232B39F47B
:100DD00021E0FB018081882349F020E007C0808169
:100DE00091810E94412021E0892BB9F7822F08953B
:100DF0000F931F93CF93DF93EC0188819981009724
:100E000059F02A813B812617370730F081E0DF91C6
:100E1000CF911F910F9108958B016F5F7F4F0E94BB
:100E2000681F009759F0998388831B830A832C815C
:100E30003D81232B59F7FC011082E8CF80E0E7CFFA
:100E4000EF92FF920F931F93CF93DF93611571057C
:100E500041F480E0DF91CF911F910F91FF90EF90CF
:100E6000089541155105B1F07B01EC010C811D8104
:100E7000040F151FB8010E94F806882351F328813A
:100E800039818C819D81B701820F931F0E944A2076
:100E90001D830C8381E0DECFFC014481558160819C
:100EA000718185E295E00C942007FB010190002000
:100EB000E9F73197AF01461B570B0C942007CF93EE
:100EC000DF93EC0188819981009711F00E94DF1E69
:100ED000198218821D821C821B821A82DF91CF9197
:100EE0000895CF93DF93EC01FB014481558160812C
:100EF00071810E942007811103C0CE010E945F070B
:100F0000CE01DF91CF910895EF92FF920F931F933F
:100F1000CF93DF93EC017B018A01BA010E94F806AE
:100F200081110BC0CE010E945F07CE01DF91CF91EE
:100F30001F910F91FF90EF9008951D830C83B701CF
:100F4000888199810E944A20F0CFFB010190002006
:100F5000E9F73197AF01461B570B0C948407EF92CA
:100F6000FF920F931F93CF93DF93CDB7DEB7A19777
:100F70000FB6F894DEBF0FBECDBF7C01CB01BA0126
:100F8000F7011182108213821282158214828E015F
:100F90000F5F1F4F22E044E00E948C17009789F0FA
:100FA000BC01C7010E94A507A1960FB6F894DEBF49
:100FB0000FBECDBFDF91CF911F910F91FF90EF90AA
:100FC0000895C7010E945F07EFCFCF93DF93EC0135
:100FD000FB018617970749F06081718161157105E2
:100FE00041F0448155810E948407CE01DF91CF9169
:100FF00008950E945F07F9CFFC01118210821382CD
:101000001282158214820C94E507FC011182108271
:101010001382128215821482FB0101900020E9F7ED
:101020003197AF01461B570B0C948407AF92BF92C8
:10103000CF92DF92EF92FF920F931F93CF93DF93A4
:101040006C015B017A0189012417350720F48F2D8B
:101050007901042F182F60E772E0C6010E9405088D
:10106000D5011496CD91DC91EC16FD06E0F40C1739
:101070001D0708F4E801D501ED91FC911197EC0FE3
:10108000FD1F108110826D917C916E0D7F1DC60138
:1010900061157105A1F00E94A507F501808191817C
:1010A000C80FD91F1883C601DF91CF911F910F91EF
:1010B000FF90EF90DF90CF90BF90AF9008950E9487
:1010C0005F07EBCFFC0180819181009711F00C94B8
:1010D000DF1E08951F920F920FB60F9211242F93C7
:1010E0003F938F939F93AF93BF938091AB03909166
:1010F000AC03A091AD03B091AE033091AA0323E0FD
:10110000230F2D3758F50196A11DB11D2093AA0379
:101110008093AB039093AC03A093AD03B093AE0365
:101120008091AF039091B003A091B103B091B2034D
:101130000196A11DB11D8093AF039093B003A093BE
:10114000B103B093B203BF91AF919F918F913F9143
:101150002F910F900FBE0F901F90189526E8230F28
:101160000296A11DB11DD2CF1F920F920FB60F9202
:1011700011242F933F934F935F936F937F938F939C
:101180009F93AF93BF93EF93FF9385EB93E00E9400
:101190001103FF91EF91BF91AF919F918F917F913B
:1011A0006F915F914F913F912F910F900FBE0F90D4
:1011B0001F9018951F920F920FB60F9211242F9324
:1011C0008F939F93EF93FF93E091C503F091C60334
:1011D0008081E091CB03F091CC0382FD1BC0908114
:1011E0008091CE038F5F8F732091CF03821741F0E0
:1011F000E091CE03F0E0EB54FC4F958F8093CE034B
:10120000FF91EF919F918F912F910F900FBE0F90B3
:101210001F9018958081F4CFCF93DF93E5EBF3E037
:101220001382128288EE93E0A0E0B0E0848395837D
:10123000A683B78380E191E09183808385EC90E081
:101240009587848784EC90E09787868780EC90E090
:10125000918B808B81EC90E0938B828B82EC90E081
:10126000958B848B86EC90E0978B868B118E128EFB
:10127000138E148E84E690E090935304809352046E
:1012800060E772E085E295E00E94050887E195E05D
:101290000E94430489E095E00E9443048BEF94E0B0
:1012A0000E9443048DEE94E00E9443048FED94E08D
:1012B0000E94430481ED94E00E94430483EC94E097
:1012C0000E944304E5EBF4E08FE0868385E18783A9
:1012D00086E0808781E08587C0EAD4E08A831B822C
:1012E0001C821D821E8287EA94E00E94430489E0EA
:1012F00090E09983888362E00E948A018AE090E00E
:10130000A0E0B0E08F839887A987BA8760E772E092
:101310008AE994E00E9405088CE894E00E94430466
:101320008EE794E00E94430480E794E00E94430427
:1013300082E694E00E94430484E594E0DF91CF913B
:101340000C944304CF93DF93CDB7DEB7EC970FB681
:10135000F894DEBF0FBECDBF789484B5826084BDA3
:1013600084B5816084BD85B5826085BD85B58160A9
:1013700085BD80916E00816080936E001092810027
:1013800080918100826080938100809181008160E2
:1013900080938100809180008160809380008091A3
:1013A000B10084608093B1008091B000816080932F
:1013B000B00080917A00846080937A0080917A00F6
:1013C000826080937A0080917A00816080937A00B5
:1013D00080917A00806880937A001092C10060E06A
:1013E0008091BB040E948A0161E08091BB040E944D
:1013F0005C011092BE041092BF041092C0041092BF
:10140000C104E091C503F091C60382E08083E091BE
:10141000C103F091C2031082E091C303F091C403B1
:101420008FEC80831092CD03E091C903F091CA0341
:1014300086E08083E091C703F091C80380818061DA
:101440008083E091C703F091C80380818860808326
:10145000E091C703F091C803808180688083E091A8
:10146000C703F091C80380818F7D808360E089E0AD
:101470000E948A0160E08AE00E948A0160E08BE0BD
:101480000E948A0160E08CE00E948A0160E081E1B4
:101490000E948A0160E08AE00E948A0161E082E0A5
:1014A0000E948A0161E088E00E948A0161E08DE08B
:1014B0000E948A0161E08EE00E948A0161E087E07B
:1014C0000E948A0161E084E00E948A0161E086E076
:1014D0000E948A0160E088E00E945C0160E08DE08B
:1014E0000E945C0160E08EE00E945C0160E087E0A9
:1014F0000E945C0160E084E00E945C0160E086E0A4
:101500000E945C0160E082E00E945C0110926E0328
:1015100090E080E00E94C60184E190E00E948D0688
:1015200060938D0370938E0380938F039093900349
:101530008EE190E00E948D066093890370938A0388
:1015400080938B0390938C0381E090E0A0E0B0E067
:101550008093FB049093FC04A093FD04B093FE04DD
:1015600088E893E1A0E0B0E08093ED049093EE046E
:10157000A093EF04B093F00488EE93E0A0E0B0E015
:101580008093D1049093D204A093D304B093D40455
:1015900088EB9BE0A0E0B0E08093C3049093C40488
:1015A000A093C504B093C60480937E0490937F04F7
:1015B000A0938004B093810480E49CE9A0E0B0E0B3
:1015C0008093700490937104A0937204B093730499
:1015D0008CE291E0A0E0B0E080938C0490938D04C5
:1015E000A0938E04B0938F0480E197E2A0E0B0E076
:1015F0008093620490936304A0936404B0936504A1
:1016000080ED97E0A0E0B0E08093540490935504FF
:10161000A0935604B093570484EF91E0A0E0B0E0AB
:101620008093DF049093E004A093E104B093E2047C
:101630000E941B040E94050483EC94E00E94310484
:10164000882321F060E088E00E945C018EE794E04E
:101650000E943104882321F060E086E00E945C0152
:1016600080E794E00E943104882321F060E087E065
:101670000E945C0180916C03882309F4B4C08CE85B
:1016800094E00E943104C0906F03D0907003E0900A
:101690007103F0907203882309F46EC0809168038F
:1016A000909169039C01990F440B550B29AF3AAFF8
:1016B0004BAF5CAFCA01B9010E94FD1A2B013C017E
:1016C000AC019B01C701B6010E94EF1C4B015C01FC
:1016D00020E030E0A9010E94041E18160CF0BEC0E4
:1016E000C501B4010E94CE1D61157105F1F080E1C4
:1016F00097E20E940E1E613A3FE0730714F060EA21
:101700007FE0CB01770FAA0BBB0B0097A105B105BA
:1017100021F481E090E0A0E0B0E080938C0490930D
:101720008D04A0938E04B0938F0420E030E0A901D3
:10173000C701B6010E94041E20E030E040E05FE3F4
:1017400087FD90C0C701B6010E94F01C0E94CE1D0B
:1017500029AD3AAD4BAD5CAD6217730784079507B1
:101760000CF085C080916E038F3F31F090916D0336
:101770008F5F992309F497C020E030E040EA50E4FD
:10178000C701B6010E94F61A87FF14C080916E034C
:10179000813480F082E694E00E94A00380916E0480
:1017A00090916F04019731F481E480936E0381E09E
:1017B00080936D0320E03CE34CE156E4C701B601A1
:1017C0000E94F61A811106C081E480936E0381E0C5
:1017D00080936D0361E084E00E945C0180916E0360
:1017E00090E00E94C60102E010E085EB93E00E94C9
:1017F000F102181619060CF0BFC585EB93E00E94A4
:10180000CF02F82E89831A8241E050E0BE016F5F5B
:101810007F4F8AE994E00E94200761E070E080E059
:1018200090E00E9455023AE0F31619F04DE0F412F0
:10183000DCCFE0909A04F0909B04E114F104B1F144
:10184000D7018D917D01882389F1082E000C990B19
:101850000E942520F70131978083F2CFC501B401A2
:10186000905840CFC701B6010E94EF1C6FCF20E017
:1018700030E0A901C701B6010E94041EA70196012C
:1018800018160CF05058C301B2010E94F61A87FFD7
:1018900073CF80916E03882309F46ECF90916D030E
:1018A00091116ACF815080936E0366CF6AE974E02C
:1018B000CE0107960E94FC0769E771E0CE01019610
:1018C0000E940508BE016F5F7F4FCE0107960E9400
:1018D000C8067C01CE0101960E946208EF2809F03B
:1018E00043C0CE0107960E94A5062B853C8521505A
:1018F0003109AC0155274F5F5F4FBE01695F7F4FD4
:10190000CE0101960E941608CE0101960E94BD06E6
:10191000F62ECE0101960E9462086F2D82E00E9491
:101920005C0182E00E9433016C01990FEE08FF0810
:101930004AE0C701B601F7FE0DC06DE285EB93E00A
:101940000E94330366277727CB016C197D098E0926
:101950009F094AE00E9426050E94720560ED77E02B
:1019600080E090E00E9455026EE771E0CE010196A2
:101970000E940508BE016F5F7F4FCE0107960E944F
:10198000C8067C01CE0101960E946208EF2831F45E
:101990008091910391E089278093910364E871E03D
:1019A000CE0101960E940508BE016F5F7F4FCE01F8
:1019B00007960E94C8067C01CE0101960E9462082B
:1019C000EF2839F481E08093740384E891E00E9469
:1019D0005B066AE871E0CE0101960E940508BE012F
:1019E0006F5F7F4FCE0107960E94C8067C01CE0133
:1019F00001960E946208EF2831F4109274038AE87D
:101A000091E00E945B0660E971E0CE0101960E94C0
:101A10000508BE016F5F7F4FCE0107960E94C80682
:101A20007C01CE0101960E946208EF2831F41092E9
:101A3000730380E991E00E945B0666E971E0CE01E4
:101A400001960E940508BE016F5F7F4FCE01079689
:101A50000E94C8067C01CE0101960E946208EF2810
:101A600039F481E08093730386E991E00E945B067C
:101A70006CE971E0CE0101960E940508BE016F5F1E
:101A80007F4FCE0107960E94C8067C01CE010196C9
:101A90000E946208F7FC5AC020E030E04AE754E4B4
:101AA0006091790370917A0380917B0390917C031C
:101AB0000E945C1B6B017C01C0928D03D0928E034F
:101AC000E0928F03F092900320E030E04AE754E484
:101AD00060917503709176038091770390917803FC
:101AE0000E945C1B6093890370938A0380938B032D
:101AF00090938C03C9AADAAAEBAAFCAA88E190E029
:101B00000E946706882341F044E050E064E170E001
:101B1000CE01C1960E94381C8091890390918A035E
:101B2000A0918B03B0918C038DAB9EABAFABB8AFE4
:101B300082E290E00E946706882341F044E050E092
:101B40006EE170E0CE01C5960E94381C60EA71E03B
:101B5000CE0101960E940508BE016F5F7F4FCE0146
:101B600007960E94C8067C01CE0101960E94620879
:101B7000EF2809F070C0CE0107960E94A5067C01EF
:101B8000FF24BFEFEB1AFB0A2B853C85215031095E
:101B9000A701BE01695F7F4FCE0101960E94160822
:101BA000CE0101960E94BD064B015C01CE0101965B
:101BB0000E9462088AEA91E00E9470054AE0C5012D
:101BC000B4010E9426058EEB91E00E945B062B85F6
:101BD0003C8521503109A701BE01695F7F4FCE01CD
:101BE00001960E941608CE0101960E94BD069B0137
:101BF000AC01A8EEB3E00E94741C6115710581056B
:101C0000910521F461E070E080E090E06093700461
:101C1000709371048093720490937304CE010196C3
:101C20000E94620810937D0400937C0480E794E096
:101C30000E94C60361E087E00E945C01609170042D
:101C40007091710480917204909173044AE00E9433
:101C500026050E94720568EC71E0CE0101960E9493
:101C60000508BE016F5F7F4FCE0107960E94C80630
:101C70007C01CE0101960E946208EF2809F049C05C
:101C8000CE0107960E94A5062B853C85215031097F
:101C9000AC0155274F5F5F4FBE01695F7F4FCE019B
:101CA00001960E941608CE0101960E94BD066B01A6
:101CB0007C01CE0101960E94620861E086E00E94EC
:101CC0005C0182ED91E00E9470054AE0C701B60117
:101CD0000E9426058EEB91E00E945B06A8EEB3E021
:101CE000A70196010E94741C61157105810591057B
:101CF00021F461E070E080E090E060937E047093F6
:101D00007F0480938004909381048EE794E00E9486
:101D1000C60361EE71E0CE0101960E940508BE0186
:101D20006F5F7F4FCE0107960E94C8067C01CE01EF
:101D300001960E946208EF2809F049C0CE0107967B
:101D40000E94A5062B853C8521503109AC01552701
:101D50004F5F5F4FBE01695F7F4FCE0101960E94CA
:101D60001608CE0101960E94BD066B017C01CE01D2
:101D700001960E94620861E088E00E945C0187EEA3
:101D800091E00E9470054AE0C701B6010E94260555
:101D90008EEB91E00E945B06A8EEB3E0A7019601EE
:101DA0000E94741C611571058105910521F461E0A3
:101DB00070E080E090E06093C3047093C40480936B
:101DC000C5049093C60483EC94E00E94C60363EFBD
:101DD00071E0CE0101960E940508BE016F5F7F4F42
:101DE000CE0107960E94C8067C01CE0101960E9492
:101DF0006208EF2809F04FC080916D03882379F0C5
:101E00008BEF91E00E945B06CE0107960E9462086C
:101E100060E772E08AE994E00E94A507E6CC809131
:101E20006B03882319F089E192E0ECCF80916A037B
:101E30008111F9CFCE0107960E94A5062B853C851E
:101E400021503109AC0155274F5F5F4FBE01695FDB
:101E50007F4FCE0101960E941608CE0101960E9486
:101E6000BD066B01CE0101960E946208C6018F3F3C
:101E7000910519F014F08FEF90E097FF02C090E009
:101E800080E010926C0380936E030E94C60161E0B3
:101E900084E00E945C0124E030E050E040E0BE01BC
:101EA000695F7F4FCE0101960E94160867E372E0DA
:101EB000CE0101960E94E306F82ECE0101960E9403
:101EC0006208FF20B1F010926C0310926E03109222
:101ED0006D0360E084E00E945C0190E080E00E947D
:101EE000C60160E088E00E945C0110936F040093DB
:101EF0006E046CE372E0CE0101960E940508BE01FB
:101F00006F5F7F4FCE0107960E94C8067C01CE010D
:101F100001960E946208EF2809F06EC080916D035F
:101F2000811172CF80916B0381117DCF80916A0303
:101F3000811179CFCE0107960E94A5062B853C859D
:101F400021503109AC0155274F5F5F4FBE01695FDA
:101F50007F4FCE0101960E941608CE0101960E9485
:101F6000BD064B01CE0101960E94620818141904A7
:101F70000CF0F5C1EFEF8E16910421F01CF08824CF
:101F80008A94912C909269038092680361E084E0C6
:101F90000E945C0180916C0381110FC0D401D29624
:101FA0002FEF30E00E94221E2AE0959587957795C5
:101FB00067952A95D1F760936E0381E080936C0357
:101FC00010926D0320E137E240E050E0209362047C
:101FD00030936304409364045093650482E694E074
:101FE0000E94A00380916E0490916F04892B21F0D0
:101FF00082E694E00E94C60324E030E050E040E036
:10200000BE01695F7F4FCE0101960E94160860E411
:1020100072E0CE0101960E94E306F82ECE010196F1
:102020000E946208FF2009F44AC026E030E045E043
:1020300050E0BE01695F7F4FCE0101960E941608F5
:102040006BE273E0CE0101960E94E306F82ECE010A
:1020500001960E946208FF2091F085E492E00E94C0
:102060005B0660E08EE00E945C0164EF71E080E05E
:1020700090E00E94550261E08DE00E945C0126E044
:1020800030E045E050E0BE01695F7F4FCE01019630
:102090000E94160861E572E0CE0101960E94E306F7
:1020A000F82ECE0101960E946208FF2041F083E5E0
:1020B00092E00E945B0660E08DE00E945C0125E0FA
:1020C00030E050E040E0BE01695F7F4FCE010196F5
:1020D0000E94160862E672E0CE0101960E94E306B5
:1020E000F82ECE0101960E946208FF2051F12BE0EC
:1020F00030E046E050E0BE01695F7F4FCE010196BF
:102100000E941608CE0101960E94BD066B01CE0109
:1021100001960E9462081C141D045CF48EE291E09A
:102120000E946706882329F0B6018CE291E00E94A4
:10213000501C8CE291E00E9489060E946A050E9470
:10214000720526E030E050E040E0BE01695F7F4F5D
:10215000CE0101960E94160868E672E0CE01019653
:102160000E94E306F82ECE0101960E946208FF202D
:1021700009F490C00E94720590E080E00E948B06F6
:10218000682F70E090E080E04AE00E9426058FE62C
:1021900092E00E9470058AE090E00E948B06682F12
:1021A00070E090E080E04AE00E9426058FE692E031
:1021B0000E94700584E190E00E948D0642E00E943A
:1021C00076058FE692E00E9470058EE190E00E9415
:1021D0008D0642E00E9476058FE692E00E9470052F
:1021E00088E290E00E948B06682F70E090E080E02B
:1021F0004AE00E9426058FE692E00E94700582E385
:1022000090E00E9489060E946A058FE692E00E9493
:1022100070058CE390E00E9489060E946A058FE6B3
:1022200092E00E94700586E490E00E948B06682F81
:1022300070E090E080E04AE00E9426058FE692E0A0
:102240000E94700580E590E00E9489060E946A0560
:102250008FE692E00E9470058AE590E00E94890670
:102260000E946A058FE692E00E94700584E690E085
:102270000E9489060E946A058FE692E00E9470051E
:102280008EE690E00E9489060E946A050E9472050F
:102290000E94720525E030E050E040E0BE01695F39
:1022A0007F4FCE0101960E94160861E772E0CE01D1
:1022B00001960E94E306F82ECE0101960E94620864
:1022C000FF2009F4A1CD27E030E046E050E0BE0158
:1022D000695F7F4FCE0101960E9416086BE273E0A2
:1022E000CE0101960E94E306F82ECE0101960E94CF
:1022F0006208FF2091F087E792E00E945B0660E0B1
:102300008DE00E945C0164EF71E080E090E00E944B
:10231000550261E08EE00E945C0127E030E046E07B
:1023200050E0BE01695F7F4FCE0101960E94160802
:1023300061E572E0CE0101960E94E306F82ECE011F
:1023400001960E946208FF2009F45ECD84E892E0C5
:102350000E945B0660E08EE00E945C0155CD60E06B
:1023600084E00E945C0110926E0390E080E00E9485
:10237000C60110926C0340CE0E941B04882371F0AA
:102380000E9487026093A6037093A7038093A8031B
:102390009093A90384E992E00E945B060E940504E1
:1023A0008823C1F00E9487020091A6031091A70321
:1023B0002091A8033091A903601B710B820B930B32
:1023C000693B7B408105910508F457C48EE992E092
:1023D0000E945B068FED94E00E943104882309F48B
:1023E000D6C260E772E0CE018B960E94050820916C
:1023F0006E0330E0A2E4B0E00E94E01C2FEF30E07A
:1024000040E050E00E94551CCA01B9010E94FD1A2B
:102410006B017C018AE00E94330169EB72E0892B39
:1024200011F060EC72E0CE018B960E94A50760E788
:1024300072E0CE0185960E94050882E00E94330179
:10244000019709F024C481E10E94330140917D038A
:1024500050917E0360917F0370918003892B09F076
:102460000FC4CE0101960E94AF0769EC72E0CE0165
:1024700007960E940508BE016F5F7F4FCE01079649
:102480000E947107BC01CE0185960E94E507CE012E
:1024900007960E946208CE0101960E94620860E7DA
:1024A00072E0CE014F960E94050887E00E9433013A
:1024B00062EE72E0892B11F06DEE72E0CE014F9664
:1024C0000E94A50769EF72E0CE0149960E940508B7
:1024D00086E00E9433016AEE72E0892B11F065EF0D
:1024E00072E0CE0149960E9455076EEF72E0CE0170
:1024F00043960E94050888E00E94330165EF72E070
:10250000892B11F06AEE72E0CE0143960E945507C6
:10251000B0906E0365E073E0CE0107960E94050857
:10252000BE01695F7F4FCE0101960E94FC078E01BC
:10253000035F1F4F4AE0B8018B2D90E00E94751891
:10254000F80101900020E9F73197AF01401B510BD2
:10255000B801CE0101960E942007811104C0CE016E
:1025600001960E945F07BE016F5F7F4FC8010E9406
:10257000FC07CE0101960E946208CE0107960E94D8
:1025800062086CE073E085E295E00E94A507409147
:102590009203509193036091940370919503CE013F
:1025A00001960E94AF07CE0101960E944C07CE0112
:1025B00001960E94620840919603509197036091A2
:1025C000980370919903CE0101960E94AF076EE0C7
:1025D00073E0CE0107960E940508BE016F5F7F4F32
:1025E000CE0107960E9471070E944C07CE01079604
:1025F0000E946208CE0101960E94620840916F031A
:10260000509170036091710370917203CE01019635
:102610000E94AF076EE073E0CE0107960E940508A6
:10262000BE016F5F7F4FCE0107960E9471070E9427
:102630004C07CE0107960E946208CE0101960E94C7
:102640006208B701A601CE0101960E94AF076EE0B5
:1026500073E0CE0107960E940508BE016F5F7F4FB1
:10266000CE0107960E9471070E944C07CE01079683
:102670000E946208CE0101960E946208BE01655D5B
:102680007F4FCE0101960E94FC076EE073E0CE0101
:1026900007960E940508BE016F5F7F4FCE01079627
:1026A0000E9471070E944C07CE0107960E946208A3
:1026B000CE0101960E946208BE016B5D7F4FCE0184
:1026C00001960E94FC076EE073E0CE0107960E941F
:1026D0000508BE016F5F7F4FCE0107960E9471070C
:1026E0000E944C07CE0107960E946208CE01019617
:1026F0000E946208BE01615E7F4FCE0101960E947A
:10270000FC076EE073E0CE0107960E940508BE014B
:102710006F5F7F4FCE0107960E9471070E944C07A2
:10272000CE0107960E946208CE0101960E946208BF
:10273000BE01675E7F4FCE0101960E94FC076EE0EE
:1027400073E0CE0107960E940508BE016F5F7F4FC0
:10275000CE0107960E9471070E944C07CE01079692
:102760000E946208CE0101960E946208BE016D5E61
:102770007F4FCE0101960E94FC076EE073E0CE0110
:1027800007960E940508BE016F5F7F4FCE01079636
:102790000E9471070E944C07CE0107960E946208B2
:1027A000CE0101960E946208B801CE0101960E94F6
:1027B000FC076EE073E0CE0107960E940508BE019B
:1027C0006F5F7F4FCE0107960E9471070E944C07F2
:1027D000CE0107960E946208CE0101960E9462080F
:1027E00080916D03882351F080916C03882331F030
:1027F00061E173E085E295E00E945507C0908D038A
:10280000D0908E03E0908F03F090900320E030E0B2
:1028100048EC52E4C701B6010E94F61A87FD0BC0CE
:1028200020E030E046E953E4C701B6010E94041EEF
:1028300018160CF033C2B701A601CE0101960E9412
:10284000AF0768E173E0CE0107960E940508BE015C
:102850006F5F7F4FCE0107960E9471070E944C0761
:10286000CE0107960E946208CE0101960E9462087E
:1028700081E080936B03C0908903D0908A03E0903D
:102880008B03F0908C0320E030E048EC52E4C70169
:10289000B6010E94F61A87FD0BC020E030E046E941
:1028A00053E4C701B6010E94041E18160CF0F9C1CA
:1028B00040918D0350918E0360918F03709190032E
:1028C000CE0101960E94AF0760E273E0CE01079649
:1028D0000E940508BE016F5F7F4FCE0107960E94E0
:1028E00071070E944C07CE0107960E946208CE0134
:1028F00001960E94620881E080936A0368E273E0B7
:10290000CE0101960E9405086EE073E0CE010796A5
:102910000E940508BE016F5F7F4FCE0107960E949F
:1029200071070E944C07CE0107960E946208CE01F3
:1029300001960E9462086DE273E085E295E00E94D4
:1029400055074091290550912A0560912505709100
:10295000260585EB93E00E9493020E947205CE014A
:102960000D960E946208CE0143960E946208CE0135
:1029700049960E946208CE014F960E946208CE01DD
:1029800085960E946208CE018B960E9462088BEFAA
:1029900094E00E943104882309F455C181E10E942A
:1029A0001E02BC01990F880B990B0E94FD1A209101
:1029B000A2033091A3034091A4035091A5030E9468
:1029C000F01C2B013C014092A2035092A3036092A1
:1029D000A4037092A50384E10E941E02BC01990F1A
:1029E000880B990B0E94FD1A20919E0330919F0342
:1029F0004091A0035091A1030E94F01C4B015C0187
:102A000080929E0390929F03A092A003B092A10394
:102A100085E10E941E02BC01990F880B990B0E9450
:102A2000FD1A20919A0330919B0340919C03509191
:102A30009D030E94F01C69AF7AAF8BAF9CAF60938F
:102A40009A0370939B0380939C0390939D036091E2
:102A50000001709101016F5F7F4F709301016093DE
:102A600000016A3071050CF4EEC0072E000C880BD3
:102A7000990B0E94FD1A6B017C01AC019B01C30103
:102A8000B2010E945C1D2B013C01A7019601C5010A
:102A9000B4010E945C1D4B015C01A701960169AD68
:102AA0007AAD8BAD9CAD0E945C1D6B017C012AE070
:102AB00038E240EA5BE3C301B2010E945C1B609311
:102AC0007D0370937E0380937F039093800320E0C7
:102AD00030E040EA5BE3C501B4010E945C1B6093F7
:102AE000790370937A0380937B0390937C0320E0B7
:102AF00030E040EA5BE3C701B6010E945C1B6093D3
:102B0000750370937603809377039093780320E0A6
:102B100030E44CE950E4C501B4010E945C1B2091F3
:102B20008D0330918E0340918F03509190030E944A
:102B3000EF1C2CE437E34DE850E40E945C1D6093E9
:102B4000850370938603809387039093880320E026
:102B500030E44CE950E4C701B6010E945C1B2091AF
:102B6000890330918A0340918B0350918C030E941A
:102B7000EF1C2CE437E34DE850E40E945C1D6B0130
:102B80007C01C0928103D0928203E0928303F09291
:102B9000840380917403882341F01092850310927E
:102BA0008603109287031092880380917303882311
:102BB00041F01092850310928603109287031092C1
:102BC00088031092A2031092A3031092A403109200
:102BD000A50310929E0310929F031092A0031092DF
:102BE000A10310929A0310929B0310929C031092DF
:102BF0009D038090850390908603A0908703B090FA
:102C00008803A5019401C501B4010E94091EA70112
:102C10009601882309F468C1C701B6010E94091E04
:102C2000811142C0C0926F03D0927003E092710391
:102C3000F092720381E08093910381E090E09093A1
:102C400001018093000184E594E00E94310488230F
:102C500009F414C10E945504882351F08091BC04EA
:102C60008B3009F46CC020F08551823008F488C0A4
:102C700060E070E080EC9FE769C08CEA92E0A8CB4E
:102C8000CE0101960E94AF0761ED72E0F0CB6AEDD4
:102C900072E0CE0185960E94A50701CC10926B03CD
:102CA000EACD10926A032ACEA7019601C501B401AC
:102CB0000E94EF1C20E030E048E452E40E94041E31
:102CC000181684F1A5019401C701B6010E94F01CF9
:102CD00020E030E040E05FE30E945C1B60936F0304
:102CE000709370038093710390937203A501940114
:102CF000C701B6010E94EF1C20E030E048E452E436
:102D00000E94041E18160CF098CF80E09CE3ACE102
:102D1000B6E480936F0390937003A0937103B09314
:102D200072038BCF80E09CE3ACE1B6E480936F0349
:102D300090937003A0937103B0937203D7CF609107
:102D4000B50470E090E080E00E94FB1A6093960367
:102D50007093970380939803909399030E9455046E
:102D6000882349F08091BC048B3059F120F08551C3
:102D7000823008F493C060E070E080EC9FE728C0E8
:102D80006091B50470E090E080E00E94FB1A20E0C2
:102D900030E040E853E40E945C1B6B017C016091D1
:102DA000B60470E090E080E00E94FD1AA701960151
:102DB0000E94F01C20E030E040E251E40E945C1DE3
:102DC000C5CF6091B70470E090E080E00E94FB1AEC
:102DD000609392037093930380939403909395036D
:102DE00080919103882309F449C00E94F6170E943C
:102DF000F6170E94F6178FE293E00E94700560912B
:102E00008D0370918E0380918F039091900344E025
:102E100050E00E944F068DE393E00E9470056091A0
:102E2000890370918A0380918B0390918C0344E015
:102E300050E00E944F068BE493E00E947005609181
:102E4000850370918603809187039091880342E007
:102E50000E94760587E593E00E9470058BE593E07C
:102E60000E947005609181037091820380918303B9
:102E70009091840342E050E00E944F0680E090E091
:102E8000892B11F40C941C0B0E94FD02882311F471
:102E90000C941C0B0E9400000C941C0B1091B704A6
:102EA000612F6F7770E090E080E00E94FD1A20E0D3
:102EB00030E040E853E40E945C1B6B017C016091B0
:102EC000B80470E090E080E00E94FD1AA70196012E
:102ED0000E94F01C20E030E040E251E40E945C1DC2
:102EE00017FF76CF905874CFC701B6010E94091E14
:102EF000882309F4D9CE80926F0390927003A09238
:102F00007103B092720396CE8AE994E00E9462083F
:102F100085E295E00C946208EF920F931F93CF9394
:102F2000DF93E80134E047FD34E1042E000C550B3B
:102F300057FF03C0519541955109E32E022F242FCD
:102F4000AE010E94AF18CE01DF91CF911F910F917A
:102F5000EF9008958F929F92AF92BF92CF92DF929F
:102F6000EF92FF92CF93DF93EC01688179818A81A0
:102F70009B81611571058105910521F464E279ED6C
:102F80008BE597E02DE133EF41E050E00E94551CC6
:102F900049015A019B01AC01A7EAB1E40E94741CEB
:102FA0006B017C01ACEEB4EFA50194010E94821C80
:102FB000C60ED71EE81EF91EF7FE06C081E0C81A2D
:102FC000D108E10880E8F80AC882D982EA82FB8247
:102FD000C701B6019F77DF91CF91FF90EF90DF900F
:102FE000CF90BF90AF909F908F9008958F929F92B7
:102FF000AF92BF92CF92DF92EF92FF926091020167
:103000007091030180910401909105016115710592
:103010008105910521F464E279ED8BE597E02DE1DE
:1030200033EF41E050E00E94551C49015A019B01D9
:10303000AC01A7EAB1E40E94741C6B017C01ACEE08
:10304000B4EFA50194010E94821CC60ED71EE81E93
:10305000F91EF7FE06C081E0C81AD108E10880E831
:10306000F80AC0920201D0920301E0920401F092AA
:103070000501C701B6019F77FF90EF90DF90CF90D9
:10308000BF90AF909F908F900895609302017093CE
:103090000301809304019093050108951F93FC019F
:1030A00099278827BC01E89411911032E9F319306F
:1030B00010F01E30C8F31B3251F01D3249F46894F1
:1030C00006C00E948018610F711D811D911D119114
:1030D00010531A30B0F33EF4909580957095619539
:1030E0007F4F8F4F9F4F1F910895BB274A3031F478
:1030F000992322F4BDE2909581959F4F0C949618E8
:10310000592F482F372F262F660F771F881F991F9B
:10311000660F771F881F991F620F731F841F951FEB
:10312000660F771F881F991F0895BB27FB0155273E
:10313000AA27880F991FAA1FA41710F0A41B839514
:103140005051B9F7A05DAA3308F0A95DA19300978B
:1031500079F7B111B1931192CB010C94E61AA9E061
:10316000B0E0E5EBF8E10C948D1C6A01F22EB02E74
:10317000102FFBE3AF2EA01608F41BE31F5F012FF7
:1031800027E0AE014F5F5F4F0E940E1ABC0189819C
:10319000982F9970913009F43FC09BE2E1FC04C084
:1031A0009E2D9170E0FC3AC05E2D5071E82FE870C2
:1031B00083FF46C084E0911101C083E0EF2DE81B3E
:1031C0008F1508F0E0E0D6018E2F20E2552351F153
:1031D000992329F0D6019C93C60101966C019601B2
:1031E0002D5F3F4FE2FE24C08EE4D6018C9391E424
:1031F00011969C93119712968C93D9018E2F90E281
:1032000081111BC0E20FF32FF11D10828EEF9FEF93
:103210002996ECE00C94A91C9DE2C6CF90E2C4CFA5
:103220002D9381508111FCCFCE0ED11CE0E0D0CF88
:103230008EE6D6018C9391E6DBCF9D938150E0CF53
:10324000482F447082FF3DC084E0911101C083E0AB
:103250008F1510F4EF2DE81BD6018E2F20E2552399
:1032600009F1992329F0D6019C93C60101966C01BE
:1032700096012D5F3F4FE2FE1BC089E4D6018C937F
:103280008EE411968C93119786E412968C93D90153
:103290008E2F90E2882309F4B5CF9D938150FACF09
:1032A0002D9381508111FCCFCE0ED11CE0E0D9CFFF
:1032B00089E6D6018C938EE611968C93119786E65B
:1032C000E4CF9B0177FF02C030E020E0A1E0B0E056
:1032D000911102C0B0E0A0E0F9013196AE0FBF1F1E
:1032E0008B2C912CBB2009F461C05401EFEFAE1A76
:1032F000BE0AAA0DBB1DFA161B0619F014F04F2DBD
:103300004A1B511188C0E3FC59C07601A42FB0E2DA
:10331000A1114FC0C40ED11C992309F45BC040E039
:10332000D6011196F60190836D01552309F448C02A
:10333000012F060F9A81582F507184FF03C09133DB
:1033400009F4015010160CF047C0093008F008E0ED
:10335000EEE2FE2E5B01A01AB108850191948194E2
:1033600091082F3F320729F4D601FC92F6013196DD
:103370006F016217730794F1021713077CF5DB01E5
:10338000A21BB30BAA24A394B12CAC0EBD1EAA0D94
:10339000BB1D11968C9121503109D601119628152B
:1033A0003905F4F0F60180836D01DBCFB12CA12C3F
:1033B000A0CFF701B1937F01A150AACF9111B0CF57
:1033C000D601942F50E302C05D9391509111FCCF30
:1033D000C40ED11C40E0ACCF01E0BACF80E3DBCF1C
:1033E0006217730731F4963388F4953311F455233B
:1033F00069F0F6018083FD01842F90E2811108C0FD
:10340000A40FB11D1C9290E080E002CF81E3F1CFC8
:1034100091938150F3CF911183CF8ACF283008F058
:1034200027E03327DA01990F311D87FD916000965F
:103430006105710539F432602E5F3D9330E32A95C2
:10344000E1F708959F3F30F080387105610509F07C
:103450003C5F3C5F3D93913008F08068911DDF93A5
:10346000CF931F930F93FF92EF92192F987F96950A
:10347000E92F96959695E90FFF27EE53FF4F992771
:103480003327EE24FF24A701E70105900894079451
:1034900028F4360FE71EF81E491F511D660F771FCF
:1034A000881F991F0694A1F70590079428F4E70E4A
:1034B000F81E491F561FC11D770F881F991F661FD1
:1034C0000694A1F70590079428F4F80E491F561F9B
:1034D000C71FD11D880F991F661F771F0694A1F77C
:1034E0000590079420F4490F561FC71FD81F990F46
:1034F000661F771F881F0694A9F78491109517708F
:1035000041F0D695C79557954795F794E7941A9546
:10351000C1F7E8E6F0E06894159015913591659152
:10352000959105907FE27395E118F10A430B560BD4
:10353000C90BD009C0F7E10CF11E431F561FC91F6C
:10354000D01D7EF4703311F48A95E6CFE8940150D3
:1035500030F0080F0AF40027021708F4202F2395F3
:10356000022F7A3328F079E37D932A95E9F710C08A
:103570007D932A9589F606949795679537951795C3
:103580001794E118F10A430B560BC90BD00998F0B8
:1035900023957E9173957A3308F070E37C93201322
:1035A000B8F77E9170617D9330F0839571E37D93E0
:1035B00070E32A95E1F71124EF90FF900F911F918E
:1035C000CF91DF91992787FD90950895DC01FC014B
:1035D000672F71917723E1F7329704C07C916D9347
:1035E00070836291AE17BF07C8F308950E94381B1D
:1035F00008F481E00895E89409C097FB3EF49095A3
:103600008095709561957F4F8F4F9F4F9923A9F0BB
:10361000F92F96E9BB279395F6958795779567954A
:10362000B795F111F8CFFAF4BB0F11F460FF1BC08E
:103630006F5F7F4F8F4F9F4F16C0882311F096E921
:1036400011C0772321F09EE8872F762F05C06623CF
:1036500071F096E8862F70E060E02AF09A95660F88
:10366000771F881FDAF7880F9695879597F9089541
:10367000990F0008550FAA0BE0E8FEEF1616170683
:10368000E807F907C0F012161306E407F50798F0EB
:10369000621B730B840B950B39F40A2661F0232B04
:1036A000242B252B21F408950A2609F4A140A69580
:1036B0008FEF811D811D08950E946F1B0C94E01BEC
:1036C0000E94D21B38F00E94D91B20F0952311F0E4
:1036D0000C94C91B0C94CF1B11240C94141C0E9435
:1036E000F11B70F3959FC1F3950F50E0551F629F3A
:1036F000F001729FBB27F00DB11D639FAA27F00D4B
:10370000B11DAA1F649F6627B00DA11D661F829F71
:103710002227B00DA11D621F739FB00DA11D621F56
:10372000839FA00D611D221F749F3327A00D611D73
:10373000231F849F600D211D822F762F6A2F112455
:103740009F5750409AF0F1F088234AF0EE0FFF1F88
:10375000BB1F661F771F881F91505040A9F79E3FDF
:10376000510580F00C94C91B0C94141C5F3FE4F3CA
:10377000983ED4F3869577956795B795F795E79535
:103780009F5FC1F7FE2B880F911D9695879597F93E
:10379000089597F99F6780E870E060E008959FEFD3
:1037A00080EC089500240A941616170618060906D8
:1037B000089500240A9412161306140605060895A7
:1037C000092E0394000C11F4882352F0BB0F40F42F
:1037D000BF2B11F460FF04C06F5F7F4F8F4F9F4F6F
:1037E000089557FD9058440F551F59F05F3F71F0F1
:1037F0004795880F97FB991F61F09F3F79F0879558
:103800000895121613061406551FF2CF4695F1DFE0
:1038100008C0161617061806991FF1CF8695710570
:10382000610508940895E894BB2766277727CB01A4
:1038300097F90895DC01CB01FC01F999FECF06C090
:10384000F2BDE1BDF89A319600B40D92415050405E
:10385000B8F70895F999FECF92BD81BDF89A9927DE
:1038600080B50895A8E1B0E042E050E00C941C1C43
:10387000DC01CB0103C02D910E94431C41505040FC
:10388000D0F70895262FF999FECF1FBA92BD81BDBA
:1038900020BD0FB6F894FA9AF99A0FBE01960895D2
:1038A0000E94421C272F0C94431C052E97FB1EF4EC
:1038B00000940E946C1C57FD07D00E94BE1C07FCA0
:1038C00003D04EF40C946C1C509540953095219586
:1038D0003F4F4F4F5F4F089590958095709561953C
:1038E0007F4F8F4F9F4F08950E94E01CA59F900D22
:1038F000B49F900DA49F800D911D11240895B7FFD2
:103900000C94741C0E94741C821B930B08952F92BC
:103910003F924F925F926F927F928F929F92AF925F
:10392000BF92CF92DF92EF92FF920F931F93CF93AC
:10393000DF93CDB7DEB7CA1BDB0B0FB6F894DEBF43
:103940000FBECDBF09942A88398848885F846E8469
:103950007D848C849B84AA84B984C884DF80EE80B3
:10396000FD800C811B81AA81B981CE0FD11D0FB6BC
:10397000F894DEBF0FBECDBFED010895A1E21A2E6F
:10398000AA1BBB1BFD010DC0AA1FBB1FEE1FFF1F03
:10399000A217B307E407F50720F0A21BB30BE40B53
:1039A000F50B661F771F881F991F1A9469F760959A
:1039B0007095809590959B01AC01BD01CF01089554
:1039C000A29FB001B39FC001A39F700D811D112460
:1039D000911DB29F700D811D1124911D08955058A5
:1039E000BB27AA270E94071D0C94E01B0E94D21B34
:1039F00038F00E94D91B20F039F49F3F19F426F4C7
:103A00000C94CF1B0EF4E095E7FB0C94C91BE92F37
:103A10000E94F11B58F3BA176207730784079507D2
:103A200020F079F4A6F50C94131C0EF4E0950B2EFF
:103A3000BA2FA02D0B01B90190010C01CA01A00100
:103A40001124FF27591B99F0593F50F4503E68F15B
:103A50001A16F040A22F232F342F4427585FF3CF9C
:103A6000469537952795A795F0405395C9F77EF46D
:103A70001F16BA0B620B730B840BBAF09150A1F0B6
:103A8000FF0FBB1F661F771F881FC2F70EC0BA0F3C
:103A9000621F731F841F48F4879577956795B795C4
:103AA000F7959E3F08F0B0CF9395880F08F09927BF
:103AB000EE0F9795879508950E94701D0C94E01B5A
:103AC0000E94D91B58F00E94D21B40F029F45F3F9E
:103AD00029F00C94C91B51110C94141C0C94CF1B8D
:103AE0000E94F11B68F39923B1F3552391F3951BC1
:103AF000550BBB27AA2762177307840738F09F5F0F
:103B00005F4F220F331F441FAA1FA9F335D00E2E7B
:103B10003AF0E0E832D091505040E695001CCAF7E8
:103B20002BD0FE2F29D0660F771F881FBB1F2617AB
:103B300037074807AB07B0E809F0BB0B802DBF0182
:103B4000FF2793585F4F3AF09E3F510578F00C9451
:103B5000C91B0C94141C5F3FE4F3983ED4F3869584
:103B600077956795B795F7959F5FC9F7880F911D72
:103B70009695879597F90895E1E0660F771F881F5E
:103B8000BB1F621773078407BA0720F0621B730B11
:103B9000840BBA0BEE1F88F7E09508950E94D51D9F
:103BA0006894B1110C94141C08950E94F91B88F0BC
:103BB0009F5798F0B92F9927B751B0F0E1F0660FF1
:103BC000771F881F991F1AF0BA95C9F714C0B13032
:103BD00091F00E94131CB1E008950C94131C672F00
:103BE000782F8827B85F39F0B93FCCF38695779561
:103BF0006795B395D9F73EF490958095709561954A
:103C00007F4F8F4F9F4F08950E94381B08F48FEF0E
:103C100008950E94381B880B990B089597FB072E77
:103C200016F4009407D077FD09D00E94291E07FCE6
:103C300005D03EF4909581959F4F089570956195BC
:103C40007F4F08950E94E01CB7FF0895821B930BDD
:103C50000895AA1BBB1B51E107C0AA1FBB1FA617D3
:103C6000B70710F0A61BB70B881F991F5A95A9F725
:103C700080959095BC01CD010895EE0FFF1F059032
:103C8000F491E02D09940F931F93CF93DF9382302B
:103C9000910510F482E090E0E0912D05F0912E0561
:103CA00030E020E0B0E0A0E0309799F42115310534
:103CB00009F44AC0281B390B24303105D8F58A8114
:103CC0009B816115710589F1FB0193838283FE015C
:103CD00011C0408151810281138148175907E0F0DA
:103CE0004817590799F4109761F012960C931297A0
:103CF00013961C933296CF01DF91CF911F910F91B4
:103D0000089500932D0510932E05F4CF211531054C
:103D100051F04217530738F0A901DB019A01BD01A8
:103D2000DF01F801C1CFEF01F9CF90932E05809309
:103D30002D05CDCFFE01E20FF31F81939193225009
:103D4000310939832883D7CF20912B0530912C0559
:103D5000232B41F4209108013091090130932C0567
:103D600020932B0520910601309107012115310583
:103D700041F42DB73EB740910A0150910B01241B2D
:103D8000350BE0912B05F0912C05E217F307A0F419
:103D90002E1B3F0B2817390778F0AC014E5F5F4FA1
:103DA0002417350748F04E0F5F1F50932C054093A2
:103DB0002B05819391939FCFF0E0E0E09CCFCF93D0
:103DC000DF930097E9F0FC01329713821282A091F1
:103DD0002D05B0912E05ED0130E020E01097A1F403
:103DE00020813181820F931F20912B0530912C056A
:103DF0002817390709F061C0F0932C05E0932B05D3
:103E0000DF91CF910895EA01CE17DF07E8F54A81E7
:103E10005B819E0141155105B1F7E901FB83EA83FE
:103E200049915991C40FD51FEC17FD0761F48081AA
:103E300091810296840F951FE9019983888382817D
:103E400093819B838A83F0E0E0E012968D919C91B0
:103E500013970097B9F52D913C911197CD010296DA
:103E6000820F931F20912B0530912C0528173907BD
:103E700039F6309751F510922E0510922D05B0931A
:103E80002C05A0932B05BCCFD383C28340815181E5
:103E9000840F951FC817D90761F44E5F5F4F888163
:103EA0009981480F591F518340838A819B81938355
:103EB00082832115310509F0B0CFF0932E05E093F0
:103EC0002D059ECFFD01DC01C0CF13821282D7CF1A
:103ED000B0E0A0E0EEE6FFE10C94891C8C010097B5
:103EE00051F4CB010E94431E8C01C801CDB7DEB74F
:103EF000E0E10C94A51CFC01E60FF71F9C01225089
:103F00003109E217F30708F49DC0D901CD91DC9186
:103F10001197C617D70798F0C530D10530F3CE01F9
:103F200004978617970708F3C61BD70B2297C193F0
:103F3000D1936D937C93CF010E94DF1ED6CF5B019E
:103F4000AC1ABD0A4C018C0E9D1EA0912D05B0919E
:103F50002E05512C412CF12CE12C109731F580913C
:103F60002B0590912C058815990509F05CC0461623
:103F7000570608F058C080910601909107010097FC
:103F800041F48DB79EB740910A0150910B01841BFB
:103F9000950BE817F90708F055C0F0932C05E0934E
:103FA0002B05F90171836083A0CF8D919C911197AE
:103FB00012966C90129713967C901397A815B905DA
:103FC00059F56C0142E0C40ED11CCA14DB0420F187
:103FD000AC014A195B09DA011296159780F06282EA
:103FE000738251834083D9016D937C93E114F10472
:103FF00071F0D7011396FC93EE93129776CF229629
:104000008C0F9D1FF90191838083F301EFCFF09313
:104010002E05E0932D0569CF4816590608F42C01AA
:104020007D01D3019ACFCB010E94431E7C010097F2
:1040300049F0AE01B8010E942D20C8010E94DF1E88
:10404000870153CF10E000E050CF911108958156C1
:104050008A5108F4805285580895FB01DC0102C0A2
:1040600001900D9241505040D8F70895FC01819184
:10407000861721F08823D9F7992708953197CF0122
:104080000895FB01DC018D91019080190110D9F395
:10409000990B0895FB01DC0101900D920020E1F7DE
:1040A0000895FB0151915523A9F0BF01DC014D9109
:1040B00045174111E1F759F4CD010190002049F075
:1040C0004D9140154111C9F3FB014111EFCF81E042
:1040D00090E00197089510E0CFEDD0E004C0FE011C
:1040E0000E943D1E2196C03ED107C9F7F894FFCF2C
:1040F00001000100000000002F058000000000000A
:1041000033039302C0028003F102CF02E3020D0ADF
:10411000006E616E00696E66006F766600457863BA
:104120006565646564206D6178696D756D206E7577
:104130006D626572206F66207772697465730041E5
:104140007474656D707420746F2077726974652063
:104150006F757473696465206F6620454550524FD2
:104160004D206D656D6F7279004C483253004445A7
:104170004255470044455350310041545650310098
:10418000415456503200444553503200435350007E
:1041900052455345545F494E5600524553455420AD
:1041A000494E564552534F5220504F5220002053F3
:1041B0004547554E444F530052455345545F3132A5
:1041C000560052455345542031325620504F52200C
:1041D00000424F4D4241004C49474120424F4D4221
:1041E00041200054555242494E41005052455353CC
:1041F000414F204445205345475552414EC38741C6
:10420000204154495641444F0043414C4942524198
:10421000522053454E534F5245532044452050524F
:10422000455353C3834F0053544F500053435400DE
:10423000505F494E00505F494E204C494741444F22
:10424000003000505F494E204445534C494741449B
:104250004F00545F53455000454550524F4D0009A3
:1042600000505F4F555400505F4F5554204C494704
:1042700041444F00505F4F5554204445534C4947EB
:1042800041444F004C4947415F54454C410054451F
:104290005354455F5052455353414F0054524F437E
:1042A000415F4741534F534100494E565F4F4B00CA
:1042B000494E565F4641494C004832535F4F6B2090
:1042C000004832535F4572722000483253204F66D7
:1042D00066005253545F494E563A4F4E0052535463
:1042E0005F494E563A4F4646003132763A00424FC9
:1042F0004D42413A00416E56616C3A003C002C2020
:10430000002C2050534547002C20435350312000AF
:104310002C2053435032200056312E31003E0043B2
:10432000414C49425F4D50585F413A200043414C57
:1043300049425F4D50585F423A2000535F5052450A
:10434000535320313A2000202D2000535F50524516
:08435000535320323A20000013
:107E0000112484B714BE81FFF0D085E080938100F7
:107E100082E08093C00088E18093C10086E0809377
:107E2000C20080E18093C4008EE0C9D0259A86E02C
:107E300020E33CEF91E0309385002093840096BBD3
:107E4000B09BFECF1D9AA8958150A9F7CC24DD24C4
:107E500088248394B5E0AB2EA1E19A2EF3E0BF2EE7
:107E6000A2D0813461F49FD0082FAFD0023811F036
:107E7000013811F484E001C083E08DD089C08234E0
:107E800011F484E103C0853419F485E0A6D080C0E4
:107E9000853579F488D0E82EFF2485D0082F10E0AE
:107EA000102F00270E291F29000F111F8ED06801E7
:107EB0006FC0863521F484E090D080E0DECF843638
:107EC00009F040C070D06FD0082F6DD080E0C81688
:107ED00080E7D80618F4F601B7BEE895C0E0D1E017
:107EE00062D089930C17E1F7F0E0CF16F0E7DF06D8
:107EF00018F0F601B7BEE89568D007B600FCFDCFD4
:107F0000A601A0E0B1E02C9130E011968C91119780
:107F100090E0982F8827822B932B1296FA010C0160
:107F200087BEE89511244E5F5F4FF1E0A038BF0790
:107F300051F7F601A7BEE89507B600FCFDCF97BE46
:107F4000E89526C08437B1F42ED02DD0F82E2BD052
:107F50003CD0F601EF2C8F010F5F1F4F84911BD097
:107F6000EA94F801C1F70894C11CD11CFA94CF0C13
:107F7000D11C0EC0853739F428D08EE10CD085E9AC
:107F80000AD08FE07ACF813511F488E018D01DD067
:107F900080E101D065CF982F8091C00085FFFCCF94
:107FA0009093C60008958091C00087FFFCCF809118
:107FB000C00084FD01C0A8958091C6000895E0E648
:107FC000F0E098E1908380830895EDDF803219F02E
:107FD00088E0F5DFFFCF84E1DECF1F93182FE3DFCA
:107FE0001150E9F7F2DF1F91089580E0E8DFEE27F6
:047FF000FF270994CA
:027FFE00040479
:00000001FF
